{
  "contractName": "BondFunction",
  "abi": [
    {
      "inputs": [
        {
          "internalType": "address",
          "name": "_bondReceiptContract",
          "type": "address"
        }
      ],
      "stateMutability": "nonpayable",
      "type": "constructor"
    },
    {
      "inputs": [
        {
          "internalType": "uint256",
          "name": "indexBond",
          "type": "uint256"
        }
      ],
      "name": "getListBondReceipts",
      "outputs": [
        {
          "internalType": "uint256[]",
          "name": "",
          "type": "uint256[]"
        }
      ],
      "stateMutability": "view",
      "type": "function"
    },
    {
      "inputs": [
        {
          "internalType": "address",
          "name": "_issuing",
          "type": "address"
        }
      ],
      "name": "getBondList",
      "outputs": [
        {
          "components": [
            {
              "internalType": "uint256",
              "name": "indexBond",
              "type": "uint256"
            },
            {
              "internalType": "address",
              "name": "issuing",
              "type": "address"
            },
            {
              "internalType": "address",
              "name": "tokenCollateral",
              "type": "address"
            },
            {
              "internalType": "uint256",
              "name": "amountCollateral",
              "type": "uint256"
            },
            {
              "internalType": "address",
              "name": "tokenRequired",
              "type": "address"
            },
            {
              "internalType": "uint256",
              "name": "interestCoupon",
              "type": "uint256"
            },
            {
              "internalType": "uint256[]",
              "name": "expireCoupon",
              "type": "uint256[]"
            },
            {
              "internalType": "uint256",
              "name": "sizeBond",
              "type": "uint256"
            },
            {
              "internalType": "uint256",
              "name": "amountAvvalible",
              "type": "uint256"
            },
            {
              "internalType": "uint256",
              "name": "amountSellBond",
              "type": "uint256"
            }
          ],
          "internalType": "struct StorageStruct.BondStruct[]",
          "name": "",
          "type": "tuple[]"
        }
      ],
      "stateMutability": "view",
      "type": "function"
    }
  ],
  "bytecode": "0x608060405234801561001057600080fd5b50604051610898380380610898833981810160405281019061003291906100dc565b80600260006101000a81548173ffffffffffffffffffffffffffffffffffffffff021916908373ffffffffffffffffffffffffffffffffffffffff16021790555050610109565b600080fd5b600073ffffffffffffffffffffffffffffffffffffffff82169050919050565b60006100a98261007e565b9050919050565b6100b98161009e565b81146100c457600080fd5b50565b6000815190506100d6816100b0565b92915050565b6000602082840312156100f2576100f1610079565b5b6000610100848285016100c7565b91505092915050565b610780806101186000396000f3fe608060405234801561001057600080fd5b50600436106100365760003560e01c80634389738e1461003b578063eedfa1011461006b575b600080fd5b61005560048036038101906100509190610376565b61009b565b6040516100629190610461565b60405180910390f35b610085600480360381019061008091906104e1565b610106565b6040516100929190610728565b60405180910390f35b6060600660008381526020019081526020016000208054806020026020016040519081016040528092919081815260200182805480156100fa57602002820191906000526020600020905b8154815260200190600101908083116100e6575b50505050509050919050565b6060600160008373ffffffffffffffffffffffffffffffffffffffff1673ffffffffffffffffffffffffffffffffffffffff168152602001908152602001600020805480602002602001604051908101604052809291908181526020016000905b8282101561033057838290600052602060002090600a020160405180610140016040529081600082015481526020016001820160009054906101000a900473ffffffffffffffffffffffffffffffffffffffff1673ffffffffffffffffffffffffffffffffffffffff1673ffffffffffffffffffffffffffffffffffffffff1681526020016002820160009054906101000a900473ffffffffffffffffffffffffffffffffffffffff1673ffffffffffffffffffffffffffffffffffffffff1673ffffffffffffffffffffffffffffffffffffffff168152602001600382015481526020016004820160009054906101000a900473ffffffffffffffffffffffffffffffffffffffff1673ffffffffffffffffffffffffffffffffffffffff1673ffffffffffffffffffffffffffffffffffffffff16815260200160058201548152602001600682018054806020026020016040519081016040528092919081815260200182805480156102fa57602002820191906000526020600020905b8154815260200190600101908083116102e6575b50505050508152602001600782015481526020016008820154815260200160098201548152505081526020019060010190610167565b505050509050919050565b600080fd5b6000819050919050565b61035381610340565b811461035e57600080fd5b50565b6000813590506103708161034a565b92915050565b60006020828403121561038c5761038b61033b565b5b600061039a84828501610361565b91505092915050565b600081519050919050565b600082825260208201905092915050565b6000819050602082019050919050565b6103d881610340565b82525050565b60006103ea83836103cf565b60208301905092915050565b6000602082019050919050565b600061040e826103a3565b61041881856103ae565b9350610423836103bf565b8060005b8381101561045457815161043b88826103de565b9750610446836103f6565b925050600181019050610427565b5085935050505092915050565b6000602082019050818103600083015261047b8184610403565b905092915050565b600073ffffffffffffffffffffffffffffffffffffffff82169050919050565b60006104ae82610483565b9050919050565b6104be816104a3565b81146104c957600080fd5b50565b6000813590506104db816104b5565b92915050565b6000602082840312156104f7576104f661033b565b5b6000610505848285016104cc565b91505092915050565b600081519050919050565b600082825260208201905092915050565b6000819050602082019050919050565b610543816104a3565b82525050565b600082825260208201905092915050565b6000610565826103a3565b61056f8185610549565b935061057a836103bf565b8060005b838110156105ab57815161059288826103de565b975061059d836103f6565b92505060018101905061057e565b5085935050505092915050565b6000610140830160008301516105d160008601826103cf565b5060208301516105e4602086018261053a565b5060408301516105f7604086018261053a565b50606083015161060a60608601826103cf565b50608083015161061d608086018261053a565b5060a083015161063060a08601826103cf565b5060c083015184820360c0860152610648828261055a565b91505060e083015161065d60e08601826103cf565b506101008301516106726101008601826103cf565b506101208301516106876101208601826103cf565b508091505092915050565b600061069e83836105b8565b905092915050565b6000602082019050919050565b60006106be8261050e565b6106c88185610519565b9350836020820285016106da8561052a565b8060005b8581101561071657848403895281516106f78582610692565b9450610702836106a6565b925060208a019950506001810190506106de565b50829750879550505050505092915050565b6000602082019050818103600083015261074281846106b3565b90509291505056fea2646970667358221220d2d2ef66df6c9a96c81dae2810f8d6c5637eacdd8b3f2356e4336e830ce7370364736f6c63430008100033",
  "immutableReferences": {},
  "source": "// SPDX-License-Identifier: MIT\n\nimport \"../storage.sol\";\n//import \"../bondERC721.sol\";\nimport \"../library/utils.sol\";\nimport \"../../node_modules/@openzeppelin/contracts/token/ERC20/IERC20.sol\";\nimport \"../../node_modules/@openzeppelin/contracts/token/ERC721/IERC721.sol\";\nimport \"../../node_modules/@openzeppelin/contracts/utils/Counters.sol\";\nimport \"../interface/IbondERC721.sol\";\n\npragma solidity 0.8.16;\n\ncontract BondFunction is StorageStruct {\n    using Counters for Counters.Counter;\n\n    constructor(address _bondReceiptContract) {\n        bondReceiptContract = _bondReceiptContract;\n    }\n\n    function _createNewBond(\n        address _issuing,\n        address _tokenCollateral,\n        uint256 _amountCollateral,\n        address _tokenRequired,\n        uint256 _interestCoupon,\n        uint256[] memory _expireCoupon,\n        uint256 _sizeBond,\n        uint256 _amountAvvalible\n    ) internal {\n        IERC20(_tokenCollateral).transferFrom(\n            _issuing,\n            address(this),\n            _amountCollateral\n        );\n        uint256 _bondIndex = bondIndex.current();\n        bondIndex.increment();\n        bonds[_issuing].push(\n            BondStruct(\n                _bondIndex,\n                _issuing,\n                _tokenCollateral,\n                _amountCollateral,\n                _tokenRequired,\n                _interestCoupon,\n                HelperDepositFunction._returnDayTime(_expireCoupon),\n                _sizeBond,\n                _amountAvvalible,\n                0\n            )\n        );\n    }\n\n    function _buyBond(\n        address _user,\n        uint256 _amount,\n        address _issuing,\n        uint256 _bondIndex\n    ) internal {\n        (uint256 index, bool response) = searchIndexListBond(\n            _issuing,\n            _bondIndex\n        );\n        require(response, \"Bond don't find\");\n        IERC20(bonds[_issuing][index].tokenRequired).transferFrom(\n            _user,\n            address(this),\n            (_amount * bonds[_issuing][index].sizeBond)\n        );\n        _callMintFunction(\n            _user,\n            _amount,\n            bonds[_issuing][index].indexBond,\n            bonds[_issuing][index].issuing,\n            bonds[_issuing][index].tokenCollateral,\n            bonds[_issuing][index].amountCollateral,\n            bonds[_issuing][index].tokenRequired,\n            bonds[_issuing][index].interestCoupon,\n            bonds[_issuing][index].expireCoupon,\n            bonds[_issuing][index].sizeBond\n        );\n\n        bonds[_issuing][index].amountAvvalible -= 1;\n        bonds[_issuing][index].amountSellBond += (_amount *\n            bonds[_issuing][index].sizeBond);\n\n        balanceIssuing[_issuing][\n            bonds[_issuing][index].tokenRequired\n        ] = (_amount * bonds[_issuing][index].sizeBond);\n    }\n\n    function _callMintFunction(\n        address account,\n        uint256 amount,\n        uint256 indexBond,\n        address issuing,\n        address tokenCollateral,\n        uint256 amountCollateral,\n        address tokenRequired,\n        uint256 interestCoupon,\n        uint256[] memory expireCoupon,\n        uint256 sizeBond\n    ) internal {\n        //BondReceipt721 _bondReceipt = BondReceipt721(bondReceiptContract);\n\n        uint256[] memory _idReceipt = IBondReceipt721(bondReceiptContract)\n            .safeMint(\n                account,\n                amount,\n                indexBond,\n                issuing,\n                tokenCollateral,\n                amountCollateral,\n                tokenRequired,\n                interestCoupon,\n                expireCoupon,\n                sizeBond\n            );\n\n        listBondReceipts[indexBond] = _idReceipt;\n    }\n\n    function getListBondReceipts(uint256 indexBond)\n        public\n        view\n        returns (uint256[] memory)\n    {\n        return listBondReceipts[indexBond];\n    }\n\n    function _depositInterestCoupon(\n        address _issuing,\n        uint256 _bondIndex,\n        uint256 _amount\n    ) internal {\n        (uint256 index, bool response) = searchIndexListBond(\n            _issuing,\n            _bondIndex\n        );\n        require(response, \"Bond don't find\");\n        IERC20(bonds[_issuing][index].tokenRequired).transferFrom(\n            _issuing,\n            address(this),\n            _amount\n        );\n        balanceCoupon[_bondIndex][\n            bonds[_issuing][index].tokenRequired\n        ] += _amount;\n    }\n\n    function _claimCouponExpired(\n        address _user,\n        address _issuing,\n        uint256 _bondIndex,\n        uint256 _receiptID,\n        uint256 _expired\n    ) internal {\n        (uint256 index, bool response) = searchIndexListBond(\n            _issuing,\n            _bondIndex\n        );\n        require(response, \"Bond don't find\");\n        uint256[] memory expireds = bonds[_issuing][_bondIndex].expireCoupon;\n        if (expireds[_expired] <= block.timestamp) {\n            if (!couponPaid[_bondIndex][_receiptID][expireds[_expired]]) {\n                require(\n                    balanceCoupon[_bondIndex][\n                        bonds[_issuing][index].tokenRequired\n                    ] >= bonds[_issuing][index].interestCoupon,\n                    \"Balance insufficient for paid this Coupon\"\n                );\n\n                couponPaid[_bondIndex][_receiptID][expireds[_expired]] = true;\n                balanceCoupon[_bondIndex][\n                    bonds[_issuing][index].tokenRequired\n                ] -= (bonds[_issuing][index].interestCoupon);\n\n                balancUser[_user][bonds[_issuing][index].tokenRequired] += (\n                    bonds[_issuing][index].interestCoupon\n                );\n            }\n        }\n    }\n\n    function _withdrawCouponExpired() internal {}\n\n    function searchIndexListBond(address _issuing, uint256 _bondIndex)\n        internal\n        view\n        returns (uint256 index, bool response)\n    {\n        for (index = 0; index < bonds[_issuing].length; index++) {\n            if (bonds[_issuing][index].indexBond == _bondIndex) {\n                response = true;\n                return (index, response);\n            }\n        }\n        return (index = 0, response = false);\n    }\n\n    function getBondList(address _issuing)\n        public\n        view\n        returns (BondStruct[] memory)\n    {\n        return bonds[_issuing];\n    }\n}\n",
  "sourcePath": "/run/media/luk/storage/Studio Dev/Dapp portfolio/bond contract/contracts/componentContract/bondFunction.sol",
  "compiler": {
    "name": "solc",
    "version": "0.8.16+commit.07a7930e.Emscripten.clang"
  },
  "schemaVersion": "3.4.11",
  "updatedAt": "2023-01-17T20:54:31.461Z",
  "devdoc": {
    "kind": "dev",
    "methods": {},
    "version": 1
  },
  "userdoc": {
    "kind": "user",
    "methods": {},
    "version": 1
  }
}