{
  "contractName": "BondReceipt",
  "abi": [
    {
      "inputs": [],
      "stateMutability": "nonpayable",
      "type": "constructor"
    },
    {
      "anonymous": false,
      "inputs": [
        {
          "indexed": true,
          "internalType": "address",
          "name": "account",
          "type": "address"
        },
        {
          "indexed": true,
          "internalType": "address",
          "name": "operator",
          "type": "address"
        },
        {
          "indexed": false,
          "internalType": "bool",
          "name": "approved",
          "type": "bool"
        }
      ],
      "name": "ApprovalForAll",
      "type": "event"
    },
    {
      "anonymous": false,
      "inputs": [
        {
          "indexed": true,
          "internalType": "address",
          "name": "previousOwner",
          "type": "address"
        },
        {
          "indexed": true,
          "internalType": "address",
          "name": "newOwner",
          "type": "address"
        }
      ],
      "name": "OwnershipTransferred",
      "type": "event"
    },
    {
      "anonymous": false,
      "inputs": [
        {
          "indexed": false,
          "internalType": "address",
          "name": "account",
          "type": "address"
        }
      ],
      "name": "Paused",
      "type": "event"
    },
    {
      "anonymous": false,
      "inputs": [
        {
          "indexed": true,
          "internalType": "address",
          "name": "operator",
          "type": "address"
        },
        {
          "indexed": true,
          "internalType": "address",
          "name": "from",
          "type": "address"
        },
        {
          "indexed": true,
          "internalType": "address",
          "name": "to",
          "type": "address"
        },
        {
          "indexed": false,
          "internalType": "uint256[]",
          "name": "ids",
          "type": "uint256[]"
        },
        {
          "indexed": false,
          "internalType": "uint256[]",
          "name": "values",
          "type": "uint256[]"
        }
      ],
      "name": "TransferBatch",
      "type": "event"
    },
    {
      "anonymous": false,
      "inputs": [
        {
          "indexed": true,
          "internalType": "address",
          "name": "operator",
          "type": "address"
        },
        {
          "indexed": true,
          "internalType": "address",
          "name": "from",
          "type": "address"
        },
        {
          "indexed": true,
          "internalType": "address",
          "name": "to",
          "type": "address"
        },
        {
          "indexed": false,
          "internalType": "uint256",
          "name": "id",
          "type": "uint256"
        },
        {
          "indexed": false,
          "internalType": "uint256",
          "name": "value",
          "type": "uint256"
        }
      ],
      "name": "TransferSingle",
      "type": "event"
    },
    {
      "anonymous": false,
      "inputs": [
        {
          "indexed": false,
          "internalType": "string",
          "name": "value",
          "type": "string"
        },
        {
          "indexed": true,
          "internalType": "uint256",
          "name": "id",
          "type": "uint256"
        }
      ],
      "name": "URI",
      "type": "event"
    },
    {
      "anonymous": false,
      "inputs": [
        {
          "indexed": false,
          "internalType": "address",
          "name": "account",
          "type": "address"
        }
      ],
      "name": "Unpaused",
      "type": "event"
    },
    {
      "inputs": [
        {
          "internalType": "address",
          "name": "account",
          "type": "address"
        },
        {
          "internalType": "uint256",
          "name": "id",
          "type": "uint256"
        }
      ],
      "name": "balanceOf",
      "outputs": [
        {
          "internalType": "uint256",
          "name": "",
          "type": "uint256"
        }
      ],
      "stateMutability": "view",
      "type": "function"
    },
    {
      "inputs": [
        {
          "internalType": "address[]",
          "name": "accounts",
          "type": "address[]"
        },
        {
          "internalType": "uint256[]",
          "name": "ids",
          "type": "uint256[]"
        }
      ],
      "name": "balanceOfBatch",
      "outputs": [
        {
          "internalType": "uint256[]",
          "name": "",
          "type": "uint256[]"
        }
      ],
      "stateMutability": "view",
      "type": "function"
    },
    {
      "inputs": [
        {
          "internalType": "address",
          "name": "account",
          "type": "address"
        },
        {
          "internalType": "uint256",
          "name": "id",
          "type": "uint256"
        },
        {
          "internalType": "uint256",
          "name": "value",
          "type": "uint256"
        }
      ],
      "name": "burn",
      "outputs": [],
      "stateMutability": "nonpayable",
      "type": "function"
    },
    {
      "inputs": [
        {
          "internalType": "address",
          "name": "account",
          "type": "address"
        },
        {
          "internalType": "uint256[]",
          "name": "ids",
          "type": "uint256[]"
        },
        {
          "internalType": "uint256[]",
          "name": "values",
          "type": "uint256[]"
        }
      ],
      "name": "burnBatch",
      "outputs": [],
      "stateMutability": "nonpayable",
      "type": "function"
    },
    {
      "inputs": [
        {
          "internalType": "uint256",
          "name": "id",
          "type": "uint256"
        }
      ],
      "name": "exists",
      "outputs": [
        {
          "internalType": "bool",
          "name": "",
          "type": "bool"
        }
      ],
      "stateMutability": "view",
      "type": "function"
    },
    {
      "inputs": [
        {
          "internalType": "address",
          "name": "account",
          "type": "address"
        },
        {
          "internalType": "address",
          "name": "operator",
          "type": "address"
        }
      ],
      "name": "isApprovedForAll",
      "outputs": [
        {
          "internalType": "bool",
          "name": "",
          "type": "bool"
        }
      ],
      "stateMutability": "view",
      "type": "function"
    },
    {
      "inputs": [],
      "name": "owner",
      "outputs": [
        {
          "internalType": "address",
          "name": "",
          "type": "address"
        }
      ],
      "stateMutability": "view",
      "type": "function"
    },
    {
      "inputs": [],
      "name": "paused",
      "outputs": [
        {
          "internalType": "bool",
          "name": "",
          "type": "bool"
        }
      ],
      "stateMutability": "view",
      "type": "function"
    },
    {
      "inputs": [],
      "name": "renounceOwnership",
      "outputs": [],
      "stateMutability": "nonpayable",
      "type": "function"
    },
    {
      "inputs": [
        {
          "internalType": "address",
          "name": "from",
          "type": "address"
        },
        {
          "internalType": "address",
          "name": "to",
          "type": "address"
        },
        {
          "internalType": "uint256[]",
          "name": "ids",
          "type": "uint256[]"
        },
        {
          "internalType": "uint256[]",
          "name": "amounts",
          "type": "uint256[]"
        },
        {
          "internalType": "bytes",
          "name": "data",
          "type": "bytes"
        }
      ],
      "name": "safeBatchTransferFrom",
      "outputs": [],
      "stateMutability": "nonpayable",
      "type": "function"
    },
    {
      "inputs": [
        {
          "internalType": "address",
          "name": "from",
          "type": "address"
        },
        {
          "internalType": "address",
          "name": "to",
          "type": "address"
        },
        {
          "internalType": "uint256",
          "name": "id",
          "type": "uint256"
        },
        {
          "internalType": "uint256",
          "name": "amount",
          "type": "uint256"
        },
        {
          "internalType": "bytes",
          "name": "data",
          "type": "bytes"
        }
      ],
      "name": "safeTransferFrom",
      "outputs": [],
      "stateMutability": "nonpayable",
      "type": "function"
    },
    {
      "inputs": [
        {
          "internalType": "address",
          "name": "operator",
          "type": "address"
        },
        {
          "internalType": "bool",
          "name": "approved",
          "type": "bool"
        }
      ],
      "name": "setApprovalForAll",
      "outputs": [],
      "stateMutability": "nonpayable",
      "type": "function"
    },
    {
      "inputs": [
        {
          "internalType": "bytes4",
          "name": "interfaceId",
          "type": "bytes4"
        }
      ],
      "name": "supportsInterface",
      "outputs": [
        {
          "internalType": "bool",
          "name": "",
          "type": "bool"
        }
      ],
      "stateMutability": "view",
      "type": "function"
    },
    {
      "inputs": [
        {
          "internalType": "uint256",
          "name": "id",
          "type": "uint256"
        }
      ],
      "name": "totalSupply",
      "outputs": [
        {
          "internalType": "uint256",
          "name": "",
          "type": "uint256"
        }
      ],
      "stateMutability": "view",
      "type": "function"
    },
    {
      "inputs": [
        {
          "internalType": "address",
          "name": "newOwner",
          "type": "address"
        }
      ],
      "name": "transferOwnership",
      "outputs": [],
      "stateMutability": "nonpayable",
      "type": "function"
    },
    {
      "inputs": [
        {
          "internalType": "uint256",
          "name": "",
          "type": "uint256"
        }
      ],
      "name": "uri",
      "outputs": [
        {
          "internalType": "string",
          "name": "",
          "type": "string"
        }
      ],
      "stateMutability": "view",
      "type": "function"
    },
    {
      "inputs": [],
      "name": "pause",
      "outputs": [],
      "stateMutability": "nonpayable",
      "type": "function"
    },
    {
      "inputs": [],
      "name": "unpause",
      "outputs": [],
      "stateMutability": "nonpayable",
      "type": "function"
    },
    {
      "inputs": [
        {
          "internalType": "address",
          "name": "account",
          "type": "address"
        },
        {
          "internalType": "uint256",
          "name": "amount",
          "type": "uint256"
        },
        {
          "internalType": "bytes",
          "name": "data",
          "type": "bytes"
        },
        {
          "internalType": "uint256",
          "name": "indexBond",
          "type": "uint256"
        },
        {
          "internalType": "address",
          "name": "issuing",
          "type": "address"
        },
        {
          "internalType": "address",
          "name": "tokenCollateral",
          "type": "address"
        },
        {
          "internalType": "uint256",
          "name": "amountCollateral",
          "type": "uint256"
        },
        {
          "internalType": "address",
          "name": "tokenRequired",
          "type": "address"
        },
        {
          "internalType": "uint256",
          "name": "interestCoupon",
          "type": "uint256"
        },
        {
          "internalType": "uint256[]",
          "name": "expireCoupon",
          "type": "uint256[]"
        },
        {
          "internalType": "uint256",
          "name": "sizeBond",
          "type": "uint256"
        }
      ],
      "name": "mint",
      "outputs": [
        {
          "internalType": "uint256",
          "name": "_idReceipt",
          "type": "uint256"
        }
      ],
      "stateMutability": "nonpayable",
      "type": "function"
    },
    {
      "inputs": [
        {
          "internalType": "address",
          "name": "to",
          "type": "address"
        },
        {
          "internalType": "uint256[]",
          "name": "ids",
          "type": "uint256[]"
        },
        {
          "internalType": "uint256[]",
          "name": "amounts",
          "type": "uint256[]"
        },
        {
          "internalType": "bytes",
          "name": "data",
          "type": "bytes"
        }
      ],
      "name": "mintBatch",
      "outputs": [],
      "stateMutability": "nonpayable",
      "type": "function"
    },
    {
      "inputs": [
        {
          "internalType": "uint256",
          "name": "_id",
          "type": "uint256"
        }
      ],
      "name": "getInformationReceipt",
      "outputs": [
        {
          "components": [
            {
              "internalType": "uint256",
              "name": "id",
              "type": "uint256"
            },
            {
              "internalType": "uint256",
              "name": "indexBond",
              "type": "uint256"
            },
            {
              "internalType": "address",
              "name": "issuing",
              "type": "address"
            },
            {
              "internalType": "address",
              "name": "tokenCollateral",
              "type": "address"
            },
            {
              "internalType": "uint256",
              "name": "amountCollateral",
              "type": "uint256"
            },
            {
              "internalType": "address",
              "name": "tokenRequired",
              "type": "address"
            },
            {
              "internalType": "uint256",
              "name": "interestCoupon",
              "type": "uint256"
            },
            {
              "internalType": "uint256[]",
              "name": "expireCoupon",
              "type": "uint256[]"
            },
            {
              "internalType": "uint256",
              "name": "sizeBond",
              "type": "uint256"
            }
          ],
          "internalType": "struct BondReceipt.ReceiptDataStruct",
          "name": "",
          "type": "tuple"
        }
      ],
      "stateMutability": "view",
      "type": "function"
    },
    {
      "inputs": [],
      "name": "updateReceiptData",
      "outputs": [],
      "stateMutability": "nonpayable",
      "type": "function"
    }
  ],
  "bytecode": "0x60806040523480156200001157600080fd5b506040518060200160405280600081525062000033816200007560201b60201c565b506000600360006101000a81548160ff0219169083151502179055506200006f620000636200008a60201b60201c565b6200009260201b60201c565b620004b9565b8060029081620000869190620003d2565b5050565b600033905090565b6000600360019054906101000a900473ffffffffffffffffffffffffffffffffffffffff16905081600360016101000a81548173ffffffffffffffffffffffffffffffffffffffff021916908373ffffffffffffffffffffffffffffffffffffffff1602179055508173ffffffffffffffffffffffffffffffffffffffff168173ffffffffffffffffffffffffffffffffffffffff167f8be0079c531659141344cd1fd0a4f28419497f9722a3daafe3b4186f6b6457e060405160405180910390a35050565b600081519050919050565b7f4e487b7100000000000000000000000000000000000000000000000000000000600052604160045260246000fd5b7f4e487b7100000000000000000000000000000000000000000000000000000000600052602260045260246000fd5b60006002820490506001821680620001da57607f821691505b602082108103620001f057620001ef62000192565b5b50919050565b60008190508160005260206000209050919050565b60006020601f8301049050919050565b600082821b905092915050565b6000600883026200025a7fffffffffffffffffffffffffffffffffffffffffffffffffffffffffffffffff826200021b565b6200026686836200021b565b95508019841693508086168417925050509392505050565b6000819050919050565b6000819050919050565b6000620002b3620002ad620002a7846200027e565b62000288565b6200027e565b9050919050565b6000819050919050565b620002cf8362000292565b620002e7620002de82620002ba565b84845462000228565b825550505050565b600090565b620002fe620002ef565b6200030b818484620002c4565b505050565b5b81811015620003335762000327600082620002f4565b60018101905062000311565b5050565b601f82111562000382576200034c81620001f6565b62000357846200020b565b8101602085101562000367578190505b6200037f62000376856200020b565b83018262000310565b50505b505050565b600082821c905092915050565b6000620003a76000198460080262000387565b1980831691505092915050565b6000620003c2838362000394565b9150826002028217905092915050565b620003dd8262000158565b67ffffffffffffffff811115620003f957620003f862000163565b5b620004058254620001c1565b6200041282828562000337565b600060209050601f8311600181146200044a576000841562000435578287015190505b620004418582620003b4565b865550620004b1565b601f1984166200045a86620001f6565b60005b8281101562000484578489015182556001820191506020850194506020810190506200045d565b86831015620004a45784890151620004a0601f89168262000394565b8355505b6001600288020188555050505b505050505050565b61451880620004c96000396000f3fe608060405234801561001057600080fd5b50600436106101415760003560e01c8063715018a6116100b8578063df46c59c1161007c578063df46c59c1461033a578063e8c880fe1461036a578063e985e9c51461039a578063f242432a146103ca578063f2fde38b146103e6578063f5298aca1461040257610141565b8063715018a6146102bc5780638456cb59146102c65780638da5cb5b146102d0578063a22cb465146102ee578063bd85b0391461030a57610141565b80633f4ba83a1161010a5780633f4ba83a1461020e5780634e1273f4146102185780634f558e79146102485780635c975abb1461027857806366aa5cc1146102965780636b20c454146102a057610141565b8062fdd58e1461014657806301ffc9a7146101765780630e89341c146101a65780631f7fdffa146101d65780632eb2c2d6146101f2575b600080fd5b610160600480360381019061015b9190612b41565b61041e565b60405161016d9190612b90565b60405180910390f35b610190600480360381019061018b9190612c03565b6104e6565b60405161019d9190612c4b565b60405180910390f35b6101c060048036038101906101bb9190612c66565b6105c8565b6040516101cd9190612d23565b60405180910390f35b6101f060048036038101906101eb9190612f42565b61065c565b005b61020c60048036038101906102079190612ffd565b610676565b005b610216610717565b005b610232600480360381019061022d919061318f565b610729565b60405161023f91906132c5565b60405180910390f35b610262600480360381019061025d9190612c66565b610842565b60405161026f9190612c4b565b60405180910390f35b610280610856565b60405161028d9190612c4b565b60405180910390f35b61029e61086d565b005b6102ba60048036038101906102b591906132e7565b61086f565b005b6102c461090c565b005b6102ce610920565b005b6102d8610932565b6040516102e59190613381565b60405180910390f35b610308600480360381019061030391906133c8565b61095c565b005b610324600480360381019061031f9190612c66565b610972565b6040516103319190612b90565b60405180910390f35b610354600480360381019061034f9190612c66565b61098f565b604051610361919061354b565b60405180910390f35b610384600480360381019061037f919061356d565b610b49565b6040516103919190612b90565b60405180910390f35b6103b460048036038101906103af9190613699565b610db8565b6040516103c19190612c4b565b60405180910390f35b6103e460048036038101906103df91906136d9565b610e4c565b005b61040060048036038101906103fb9190613770565b610eed565b005b61041c6004803603810190610417919061379d565b610f70565b005b60008073ffffffffffffffffffffffffffffffffffffffff168373ffffffffffffffffffffffffffffffffffffffff160361048e576040517f08c379a000000000000000000000000000000000000000000000000000000000815260040161048590613862565b60405180910390fd5b60008083815260200190815260200160002060008473ffffffffffffffffffffffffffffffffffffffff1673ffffffffffffffffffffffffffffffffffffffff16815260200190815260200160002054905092915050565b60007fd9b67a26000000000000000000000000000000000000000000000000000000007bffffffffffffffffffffffffffffffffffffffffffffffffffffffff1916827bffffffffffffffffffffffffffffffffffffffffffffffffffffffff191614806105b157507f0e89341c000000000000000000000000000000000000000000000000000000007bffffffffffffffffffffffffffffffffffffffffffffffffffffffff1916827bffffffffffffffffffffffffffffffffffffffffffffffffffffffff1916145b806105c157506105c08261100d565b5b9050919050565b6060600280546105d7906138b1565b80601f0160208091040260200160405190810160405280929190818152602001828054610603906138b1565b80156106505780601f1061062557610100808354040283529160200191610650565b820191906000526020600020905b81548152906001019060200180831161063357829003601f168201915b50505050509050919050565b610664611077565b610670848484846110f5565b50505050565b61067e611321565b73ffffffffffffffffffffffffffffffffffffffff168573ffffffffffffffffffffffffffffffffffffffff1614806106c457506106c3856106be611321565b610db8565b5b610703576040517f08c379a00000000000000000000000000000000000000000000000000000000081526004016106fa90613954565b60405180910390fd5b6107108585858585611329565b5050505050565b61071f611077565b61072761164a565b565b6060815183511461076f576040517f08c379a0000000000000000000000000000000000000000000000000000000008152600401610766906139e6565b60405180910390fd5b6000835167ffffffffffffffff81111561078c5761078b612d4a565b5b6040519080825280602002602001820160405280156107ba5781602001602082028036833780820191505090505b50905060005b8451811015610837576108078582815181106107df576107de613a06565b5b60200260200101518583815181106107fa576107f9613a06565b5b602002602001015161041e565b82828151811061081a57610819613a06565b5b6020026020010181815250508061083090613a64565b90506107c0565b508091505092915050565b60008061084e83610972565b119050919050565b6000600360009054906101000a900460ff16905090565b565b610877611321565b73ffffffffffffffffffffffffffffffffffffffff168373ffffffffffffffffffffffffffffffffffffffff1614806108bd57506108bc836108b7611321565b610db8565b5b6108fc576040517f08c379a00000000000000000000000000000000000000000000000000000000081526004016108f390613954565b60405180910390fd5b6109078383836116ad565b505050565b610914611077565b61091e600061197b565b565b610928611077565b610930611a41565b565b6000600360019054906101000a900473ffffffffffffffffffffffffffffffffffffffff16905090565b61096e610967611321565b8383611aa4565b5050565b600060046000838152602001908152602001600020549050919050565b6109976129a1565b600660008381526020019081526020016000206040518061012001604052908160008201548152602001600182015481526020016002820160009054906101000a900473ffffffffffffffffffffffffffffffffffffffff1673ffffffffffffffffffffffffffffffffffffffff1673ffffffffffffffffffffffffffffffffffffffff1681526020016003820160009054906101000a900473ffffffffffffffffffffffffffffffffffffffff1673ffffffffffffffffffffffffffffffffffffffff1673ffffffffffffffffffffffffffffffffffffffff168152602001600482015481526020016005820160009054906101000a900473ffffffffffffffffffffffffffffffffffffffff1673ffffffffffffffffffffffffffffffffffffffff1673ffffffffffffffffffffffffffffffffffffffff1681526020016006820154815260200160078201805480602002602001604051908101604052809291908181526020018280548015610b2f57602002820191906000526020600020905b815481526020019060010190808311610b1b575b505050505081526020016008820154815250509050919050565b6000610b53611077565b610b5d6005611c10565b9050610b696005611c1e565b610b758c8a8d8d611c34565b6040518061012001604052808281526020018a81526020018973ffffffffffffffffffffffffffffffffffffffff1681526020018873ffffffffffffffffffffffffffffffffffffffff1681526020018781526020018673ffffffffffffffffffffffffffffffffffffffff16815260200185815260200184815260200183815250600660008b8152602001908152602001600020600082015181600001556020820151816001015560408201518160020160006101000a81548173ffffffffffffffffffffffffffffffffffffffff021916908373ffffffffffffffffffffffffffffffffffffffff16021790555060608201518160030160006101000a81548173ffffffffffffffffffffffffffffffffffffffff021916908373ffffffffffffffffffffffffffffffffffffffff1602179055506080820151816004015560a08201518160050160006101000a81548173ffffffffffffffffffffffffffffffffffffffff021916908373ffffffffffffffffffffffffffffffffffffffff16021790555060c0820151816006015560e0820151816007019080519060200190610d23929190612a2f565b506101008201518160080155905050600760008d73ffffffffffffffffffffffffffffffffffffffff1673ffffffffffffffffffffffffffffffffffffffff16815260200190815260200160002060008a81526020019081526020016000208190806001815401808255809150506001900390600052602060002001600090919091909150559b9a5050505050505050505050565b6000600160008473ffffffffffffffffffffffffffffffffffffffff1673ffffffffffffffffffffffffffffffffffffffff16815260200190815260200160002060008373ffffffffffffffffffffffffffffffffffffffff1673ffffffffffffffffffffffffffffffffffffffff16815260200190815260200160002060009054906101000a900460ff16905092915050565b610e54611321565b73ffffffffffffffffffffffffffffffffffffffff168573ffffffffffffffffffffffffffffffffffffffff161480610e9a5750610e9985610e94611321565b610db8565b5b610ed9576040517f08c379a0000000000000000000000000000000000000000000000000000000008152600401610ed090613954565b60405180910390fd5b610ee68585858585611de4565b5050505050565b610ef5611077565b600073ffffffffffffffffffffffffffffffffffffffff168173ffffffffffffffffffffffffffffffffffffffff1603610f64576040517f08c379a0000000000000000000000000000000000000000000000000000000008152600401610f5b90613b1e565b60405180910390fd5b610f6d8161197b565b50565b610f78611321565b73ffffffffffffffffffffffffffffffffffffffff168373ffffffffffffffffffffffffffffffffffffffff161480610fbe5750610fbd83610fb8611321565b610db8565b5b610ffd576040517f08c379a0000000000000000000000000000000000000000000000000000000008152600401610ff490613954565b60405180910390fd5b61100883838361207f565b505050565b60007f01ffc9a7000000000000000000000000000000000000000000000000000000007bffffffffffffffffffffffffffffffffffffffffffffffffffffffff1916827bffffffffffffffffffffffffffffffffffffffffffffffffffffffff1916149050919050565b61107f611321565b73ffffffffffffffffffffffffffffffffffffffff1661109d610932565b73ffffffffffffffffffffffffffffffffffffffff16146110f3576040517f08c379a00000000000000000000000000000000000000000000000000000000081526004016110ea90613b8a565b60405180910390fd5b565b600073ffffffffffffffffffffffffffffffffffffffff168473ffffffffffffffffffffffffffffffffffffffff1603611164576040517f08c379a000000000000000000000000000000000000000000000000000000000815260040161115b90613c1c565b60405180910390fd5b81518351146111a8576040517f08c379a000000000000000000000000000000000000000000000000000000000815260040161119f90613cae565b60405180910390fd5b60006111b2611321565b90506111c3816000878787876122c5565b60005b845181101561127c578381815181106111e2576111e1613a06565b5b6020026020010151600080878481518110611200576111ff613a06565b5b6020026020010151815260200190815260200160002060008873ffffffffffffffffffffffffffffffffffffffff1673ffffffffffffffffffffffffffffffffffffffff16815260200190815260200160002060008282546112629190613cce565b92505081905550808061127490613a64565b9150506111c6565b508473ffffffffffffffffffffffffffffffffffffffff16600073ffffffffffffffffffffffffffffffffffffffff168273ffffffffffffffffffffffffffffffffffffffff167f4a39dc06d4c0dbc64b70af90fd698a233a518aa5d07e595d983b8c0526c8f7fb87876040516112f4929190613d02565b60405180910390a461130b816000878787876122e3565b61131a816000878787876122eb565b5050505050565b600033905090565b815183511461136d576040517f08c379a000000000000000000000000000000000000000000000000000000000815260040161136490613cae565b60405180910390fd5b600073ffffffffffffffffffffffffffffffffffffffff168473ffffffffffffffffffffffffffffffffffffffff16036113dc576040517f08c379a00000000000000000000000000000000000000000000000000000000081526004016113d390613dab565b60405180910390fd5b60006113e6611321565b90506113f68187878787876122c5565b60005b84518110156115a757600085828151811061141757611416613a06565b5b60200260200101519050600085838151811061143657611435613a06565b5b60200260200101519050600080600084815260200190815260200160002060008b73ffffffffffffffffffffffffffffffffffffffff1673ffffffffffffffffffffffffffffffffffffffff168152602001908152602001600020549050818110156114d7576040517f08c379a00000000000000000000000000000000000000000000000000000000081526004016114ce90613e3d565b60405180910390fd5b81810360008085815260200190815260200160002060008c73ffffffffffffffffffffffffffffffffffffffff1673ffffffffffffffffffffffffffffffffffffffff168152602001908152602001600020819055508160008085815260200190815260200160002060008b73ffffffffffffffffffffffffffffffffffffffff1673ffffffffffffffffffffffffffffffffffffffff168152602001908152602001600020600082825461158c9190613cce565b92505081905550505050806115a090613a64565b90506113f9565b508473ffffffffffffffffffffffffffffffffffffffff168673ffffffffffffffffffffffffffffffffffffffff168273ffffffffffffffffffffffffffffffffffffffff167f4a39dc06d4c0dbc64b70af90fd698a233a518aa5d07e595d983b8c0526c8f7fb878760405161161e929190613d02565b60405180910390a46116348187878787876122e3565b6116428187878787876122eb565b505050505050565b6116526124c2565b6000600360006101000a81548160ff0219169083151502179055507f5db9ee0a495bf2e6ff9c91a7834c1ba4fdd244a5e8aa4e537bd38aeae4b073aa611696611321565b6040516116a39190613381565b60405180910390a1565b600073ffffffffffffffffffffffffffffffffffffffff168373ffffffffffffffffffffffffffffffffffffffff160361171c576040517f08c379a000000000000000000000000000000000000000000000000000000000815260040161171390613ecf565b60405180910390fd5b8051825114611760576040517f08c379a000000000000000000000000000000000000000000000000000000000815260040161175790613cae565b60405180910390fd5b600061176a611321565b905061178a818560008686604051806020016040528060008152506122c5565b60005b83518110156118d75760008482815181106117ab576117aa613a06565b5b6020026020010151905060008483815181106117ca576117c9613a06565b5b60200260200101519050600080600084815260200190815260200160002060008973ffffffffffffffffffffffffffffffffffffffff1673ffffffffffffffffffffffffffffffffffffffff1681526020019081526020016000205490508181101561186b576040517f08c379a000000000000000000000000000000000000000000000000000000000815260040161186290613f61565b60405180910390fd5b81810360008085815260200190815260200160002060008a73ffffffffffffffffffffffffffffffffffffffff1673ffffffffffffffffffffffffffffffffffffffff1681526020019081526020016000208190555050505080806118cf90613a64565b91505061178d565b50600073ffffffffffffffffffffffffffffffffffffffff168473ffffffffffffffffffffffffffffffffffffffff168273ffffffffffffffffffffffffffffffffffffffff167f4a39dc06d4c0dbc64b70af90fd698a233a518aa5d07e595d983b8c0526c8f7fb868660405161194f929190613d02565b60405180910390a4611975818560008686604051806020016040528060008152506122e3565b50505050565b6000600360019054906101000a900473ffffffffffffffffffffffffffffffffffffffff16905081600360016101000a81548173ffffffffffffffffffffffffffffffffffffffff021916908373ffffffffffffffffffffffffffffffffffffffff1602179055508173ffffffffffffffffffffffffffffffffffffffff168173ffffffffffffffffffffffffffffffffffffffff167f8be0079c531659141344cd1fd0a4f28419497f9722a3daafe3b4186f6b6457e060405160405180910390a35050565b611a4961250b565b6001600360006101000a81548160ff0219169083151502179055507f62e78cea01bee320cd4e420270b5ea74000d11b0c9f74754ebdbfc544b05a258611a8d611321565b604051611a9a9190613381565b60405180910390a1565b8173ffffffffffffffffffffffffffffffffffffffff168373ffffffffffffffffffffffffffffffffffffffff1603611b12576040517f08c379a0000000000000000000000000000000000000000000000000000000008152600401611b0990613ff3565b60405180910390fd5b80600160008573ffffffffffffffffffffffffffffffffffffffff1673ffffffffffffffffffffffffffffffffffffffff16815260200190815260200160002060008473ffffffffffffffffffffffffffffffffffffffff1673ffffffffffffffffffffffffffffffffffffffff16815260200190815260200160002060006101000a81548160ff0219169083151502179055508173ffffffffffffffffffffffffffffffffffffffff168373ffffffffffffffffffffffffffffffffffffffff167f17307eab39ab6107e8899845ad3d59bd9653f200f220920489ca2b5937696c3183604051611c039190612c4b565b60405180910390a3505050565b600081600001549050919050565b6001816000016000828254019250508190555050565b600073ffffffffffffffffffffffffffffffffffffffff168473ffffffffffffffffffffffffffffffffffffffff1603611ca3576040517f08c379a0000000000000000000000000000000000000000000000000000000008152600401611c9a90613c1c565b60405180910390fd5b6000611cad611321565b90506000611cba85612555565b90506000611cc785612555565b9050611cd8836000898585896122c5565b8460008088815260200190815260200160002060008973ffffffffffffffffffffffffffffffffffffffff1673ffffffffffffffffffffffffffffffffffffffff1681526020019081526020016000206000828254611d379190613cce565b925050819055508673ffffffffffffffffffffffffffffffffffffffff16600073ffffffffffffffffffffffffffffffffffffffff168473ffffffffffffffffffffffffffffffffffffffff167fc3d58168c5ae7397731d063d5bbf3d657854427343f4c083240f7aacaa2d0f628989604051611db5929190614013565b60405180910390a4611dcc836000898585896122e3565b611ddb836000898989896125cf565b50505050505050565b600073ffffffffffffffffffffffffffffffffffffffff168473ffffffffffffffffffffffffffffffffffffffff1603611e53576040517f08c379a0000000000000000000000000000000000000000000000000000000008152600401611e4a90613dab565b60405180910390fd5b6000611e5d611321565b90506000611e6a85612555565b90506000611e7785612555565b9050611e878389898585896122c5565b600080600088815260200190815260200160002060008a73ffffffffffffffffffffffffffffffffffffffff1673ffffffffffffffffffffffffffffffffffffffff16815260200190815260200160002054905085811015611f1e576040517f08c379a0000000000000000000000000000000000000000000000000000000008152600401611f1590613e3d565b60405180910390fd5b85810360008089815260200190815260200160002060008b73ffffffffffffffffffffffffffffffffffffffff1673ffffffffffffffffffffffffffffffffffffffff168152602001908152602001600020819055508560008089815260200190815260200160002060008a73ffffffffffffffffffffffffffffffffffffffff1673ffffffffffffffffffffffffffffffffffffffff1681526020019081526020016000206000828254611fd39190613cce565b925050819055508773ffffffffffffffffffffffffffffffffffffffff168973ffffffffffffffffffffffffffffffffffffffff168573ffffffffffffffffffffffffffffffffffffffff167fc3d58168c5ae7397731d063d5bbf3d657854427343f4c083240f7aacaa2d0f628a8a604051612050929190614013565b60405180910390a4612066848a8a86868a6122e3565b612074848a8a8a8a8a6125cf565b505050505050505050565b600073ffffffffffffffffffffffffffffffffffffffff168373ffffffffffffffffffffffffffffffffffffffff16036120ee576040517f08c379a00000000000000000000000000000000000000000000000000000000081526004016120e590613ecf565b60405180910390fd5b60006120f8611321565b9050600061210584612555565b9050600061211284612555565b9050612132838760008585604051806020016040528060008152506122c5565b600080600087815260200190815260200160002060008873ffffffffffffffffffffffffffffffffffffffff1673ffffffffffffffffffffffffffffffffffffffff168152602001908152602001600020549050848110156121c9576040517f08c379a00000000000000000000000000000000000000000000000000000000081526004016121c090613f61565b60405180910390fd5b84810360008088815260200190815260200160002060008973ffffffffffffffffffffffffffffffffffffffff1673ffffffffffffffffffffffffffffffffffffffff16815260200190815260200160002081905550600073ffffffffffffffffffffffffffffffffffffffff168773ffffffffffffffffffffffffffffffffffffffff168573ffffffffffffffffffffffffffffffffffffffff167fc3d58168c5ae7397731d063d5bbf3d657854427343f4c083240f7aacaa2d0f628989604051612296929190614013565b60405180910390a46122bc848860008686604051806020016040528060008152506122e3565b50505050505050565b6122cd61250b565b6122db8686868686866127a6565b505050505050565b505050505050565b61230a8473ffffffffffffffffffffffffffffffffffffffff16612976565b156124ba578373ffffffffffffffffffffffffffffffffffffffff1663bc197c8187878686866040518663ffffffff1660e01b8152600401612350959493929190614091565b6020604051808303816000875af192505050801561238c57506040513d601f19601f82011682018060405250810190612389919061410e565b60015b61243157612398614148565b806308c379a0036123f457506123ac61416a565b806123b757506123f6565b806040517f08c379a00000000000000000000000000000000000000000000000000000000081526004016123eb9190612d23565b60405180910390fd5b505b6040517f08c379a00000000000000000000000000000000000000000000000000000000081526004016124289061426c565b60405180910390fd5b63bc197c8160e01b7bffffffffffffffffffffffffffffffffffffffffffffffffffffffff1916817bffffffffffffffffffffffffffffffffffffffffffffffffffffffff1916146124b8576040517f08c379a00000000000000000000000000000000000000000000000000000000081526004016124af906142fe565b60405180910390fd5b505b505050505050565b6124ca610856565b612509576040517f08c379a00000000000000000000000000000000000000000000000000000000081526004016125009061436a565b60405180910390fd5b565b612513610856565b15612553576040517f08c379a000000000000000000000000000000000000000000000000000000000815260040161254a906143d6565b60405180910390fd5b565b60606000600167ffffffffffffffff81111561257457612573612d4a565b5b6040519080825280602002602001820160405280156125a25781602001602082028036833780820191505090505b50905082816000815181106125ba576125b9613a06565b5b60200260200101818152505080915050919050565b6125ee8473ffffffffffffffffffffffffffffffffffffffff16612976565b1561279e578373ffffffffffffffffffffffffffffffffffffffff1663f23a6e6187878686866040518663ffffffff1660e01b81526004016126349594939291906143f6565b6020604051808303816000875af192505050801561267057506040513d601f19601f8201168201806040525081019061266d919061410e565b60015b6127155761267c614148565b806308c379a0036126d8575061269061416a565b8061269b57506126da565b806040517f08c379a00000000000000000000000000000000000000000000000000000000081526004016126cf9190612d23565b60405180910390fd5b505b6040517f08c379a000000000000000000000000000000000000000000000000000000000815260040161270c9061426c565b60405180910390fd5b63f23a6e6160e01b7bffffffffffffffffffffffffffffffffffffffffffffffffffffffff1916817bffffffffffffffffffffffffffffffffffffffffffffffffffffffff19161461279c576040517f08c379a0000000000000000000000000000000000000000000000000000000008152600401612793906142fe565b60405180910390fd5b505b505050505050565b6127b4868686868686612999565b600073ffffffffffffffffffffffffffffffffffffffff168573ffffffffffffffffffffffffffffffffffffffff16036128655760005b83518110156128635782818151811061280757612806613a06565b5b60200260200101516004600086848151811061282657612825613a06565b5b60200260200101518152602001908152602001600020600082825461284b9190613cce565b925050819055508061285c90613a64565b90506127eb565b505b600073ffffffffffffffffffffffffffffffffffffffff168473ffffffffffffffffffffffffffffffffffffffff160361296e5760005b835181101561296c5760008482815181106128ba576128b9613a06565b5b6020026020010151905060008483815181106128d9576128d8613a06565b5b602002602001015190506000600460008481526020019081526020016000205490508181101561293e576040517f08c379a0000000000000000000000000000000000000000000000000000000008152600401612935906144c2565b60405180910390fd5b81810360046000858152602001908152602001600020819055505050508061296590613a64565b905061289c565b505b505050505050565b6000808273ffffffffffffffffffffffffffffffffffffffff163b119050919050565b505050505050565b6040518061012001604052806000815260200160008152602001600073ffffffffffffffffffffffffffffffffffffffff168152602001600073ffffffffffffffffffffffffffffffffffffffff16815260200160008152602001600073ffffffffffffffffffffffffffffffffffffffff1681526020016000815260200160608152602001600081525090565b828054828255906000526020600020908101928215612a6b579160200282015b82811115612a6a578251825591602001919060010190612a4f565b5b509050612a789190612a7c565b5090565b5b80821115612a95576000816000905550600101612a7d565b5090565b6000604051905090565b600080fd5b600080fd5b600073ffffffffffffffffffffffffffffffffffffffff82169050919050565b6000612ad882612aad565b9050919050565b612ae881612acd565b8114612af357600080fd5b50565b600081359050612b0581612adf565b92915050565b6000819050919050565b612b1e81612b0b565b8114612b2957600080fd5b50565b600081359050612b3b81612b15565b92915050565b60008060408385031215612b5857612b57612aa3565b5b6000612b6685828601612af6565b9250506020612b7785828601612b2c565b9150509250929050565b612b8a81612b0b565b82525050565b6000602082019050612ba56000830184612b81565b92915050565b60007fffffffff0000000000000000000000000000000000000000000000000000000082169050919050565b612be081612bab565b8114612beb57600080fd5b50565b600081359050612bfd81612bd7565b92915050565b600060208284031215612c1957612c18612aa3565b5b6000612c2784828501612bee565b91505092915050565b60008115159050919050565b612c4581612c30565b82525050565b6000602082019050612c606000830184612c3c565b92915050565b600060208284031215612c7c57612c7b612aa3565b5b6000612c8a84828501612b2c565b91505092915050565b600081519050919050565b600082825260208201905092915050565b60005b83811015612ccd578082015181840152602081019050612cb2565b60008484015250505050565b6000601f19601f8301169050919050565b6000612cf582612c93565b612cff8185612c9e565b9350612d0f818560208601612caf565b612d1881612cd9565b840191505092915050565b60006020820190508181036000830152612d3d8184612cea565b905092915050565b600080fd5b7f4e487b7100000000000000000000000000000000000000000000000000000000600052604160045260246000fd5b612d8282612cd9565b810181811067ffffffffffffffff82111715612da157612da0612d4a565b5b80604052505050565b6000612db4612a99565b9050612dc08282612d79565b919050565b600067ffffffffffffffff821115612de057612ddf612d4a565b5b602082029050602081019050919050565b600080fd5b6000612e09612e0484612dc5565b612daa565b90508083825260208201905060208402830185811115612e2c57612e2b612df1565b5b835b81811015612e555780612e418882612b2c565b845260208401935050602081019050612e2e565b5050509392505050565b600082601f830112612e7457612e73612d45565b5b8135612e84848260208601612df6565b91505092915050565b600080fd5b600067ffffffffffffffff821115612ead57612eac612d4a565b5b612eb682612cd9565b9050602081019050919050565b82818337600083830152505050565b6000612ee5612ee084612e92565b612daa565b905082815260208101848484011115612f0157612f00612e8d565b5b612f0c848285612ec3565b509392505050565b600082601f830112612f2957612f28612d45565b5b8135612f39848260208601612ed2565b91505092915050565b60008060008060808587031215612f5c57612f5b612aa3565b5b6000612f6a87828801612af6565b945050602085013567ffffffffffffffff811115612f8b57612f8a612aa8565b5b612f9787828801612e5f565b935050604085013567ffffffffffffffff811115612fb857612fb7612aa8565b5b612fc487828801612e5f565b925050606085013567ffffffffffffffff811115612fe557612fe4612aa8565b5b612ff187828801612f14565b91505092959194509250565b600080600080600060a0868803121561301957613018612aa3565b5b600061302788828901612af6565b955050602061303888828901612af6565b945050604086013567ffffffffffffffff81111561305957613058612aa8565b5b61306588828901612e5f565b935050606086013567ffffffffffffffff81111561308657613085612aa8565b5b61309288828901612e5f565b925050608086013567ffffffffffffffff8111156130b3576130b2612aa8565b5b6130bf88828901612f14565b9150509295509295909350565b600067ffffffffffffffff8211156130e7576130e6612d4a565b5b602082029050602081019050919050565b600061310b613106846130cc565b612daa565b9050808382526020820190506020840283018581111561312e5761312d612df1565b5b835b8181101561315757806131438882612af6565b845260208401935050602081019050613130565b5050509392505050565b600082601f83011261317657613175612d45565b5b81356131868482602086016130f8565b91505092915050565b600080604083850312156131a6576131a5612aa3565b5b600083013567ffffffffffffffff8111156131c4576131c3612aa8565b5b6131d085828601613161565b925050602083013567ffffffffffffffff8111156131f1576131f0612aa8565b5b6131fd85828601612e5f565b9150509250929050565b600081519050919050565b600082825260208201905092915050565b6000819050602082019050919050565b61323c81612b0b565b82525050565b600061324e8383613233565b60208301905092915050565b6000602082019050919050565b600061327282613207565b61327c8185613212565b935061328783613223565b8060005b838110156132b857815161329f8882613242565b97506132aa8361325a565b92505060018101905061328b565b5085935050505092915050565b600060208201905081810360008301526132df8184613267565b905092915050565b600080600060608486031215613300576132ff612aa3565b5b600061330e86828701612af6565b935050602084013567ffffffffffffffff81111561332f5761332e612aa8565b5b61333b86828701612e5f565b925050604084013567ffffffffffffffff81111561335c5761335b612aa8565b5b61336886828701612e5f565b9150509250925092565b61337b81612acd565b82525050565b60006020820190506133966000830184613372565b92915050565b6133a581612c30565b81146133b057600080fd5b50565b6000813590506133c28161339c565b92915050565b600080604083850312156133df576133de612aa3565b5b60006133ed85828601612af6565b92505060206133fe858286016133b3565b9150509250929050565b61341181612acd565b82525050565b600082825260208201905092915050565b600061343382613207565b61343d8185613417565b935061344883613223565b8060005b838110156134795781516134608882613242565b975061346b8361325a565b92505060018101905061344c565b5085935050505092915050565b60006101208301600083015161349f6000860182613233565b5060208301516134b26020860182613233565b5060408301516134c56040860182613408565b5060608301516134d86060860182613408565b5060808301516134eb6080860182613233565b5060a08301516134fe60a0860182613408565b5060c083015161351160c0860182613233565b5060e083015184820360e08601526135298282613428565b915050610100830151613540610100860182613233565b508091505092915050565b600060208201905081810360008301526135658184613486565b905092915050565b60008060008060008060008060008060006101608c8e03121561359357613592612aa3565b5b60006135a18e828f01612af6565b9b505060206135b28e828f01612b2c565b9a505060408c013567ffffffffffffffff8111156135d3576135d2612aa8565b5b6135df8e828f01612f14565b99505060606135f08e828f01612b2c565b98505060806136018e828f01612af6565b97505060a06136128e828f01612af6565b96505060c06136238e828f01612b2c565b95505060e06136348e828f01612af6565b9450506101006136468e828f01612b2c565b9350506101208c013567ffffffffffffffff81111561366857613667612aa8565b5b6136748e828f01612e5f565b9250506101406136868e828f01612b2c565b9150509295989b509295989b9093969950565b600080604083850312156136b0576136af612aa3565b5b60006136be85828601612af6565b92505060206136cf85828601612af6565b9150509250929050565b600080600080600060a086880312156136f5576136f4612aa3565b5b600061370388828901612af6565b955050602061371488828901612af6565b945050604061372588828901612b2c565b935050606061373688828901612b2c565b925050608086013567ffffffffffffffff81111561375757613756612aa8565b5b61376388828901612f14565b9150509295509295909350565b60006020828403121561378657613785612aa3565b5b600061379484828501612af6565b91505092915050565b6000806000606084860312156137b6576137b5612aa3565b5b60006137c486828701612af6565b93505060206137d586828701612b2c565b92505060406137e686828701612b2c565b9150509250925092565b7f455243313135353a2061646472657373207a65726f206973206e6f742061207660008201527f616c6964206f776e657200000000000000000000000000000000000000000000602082015250565b600061384c602a83612c9e565b9150613857826137f0565b604082019050919050565b6000602082019050818103600083015261387b8161383f565b9050919050565b7f4e487b7100000000000000000000000000000000000000000000000000000000600052602260045260246000fd5b600060028204905060018216806138c957607f821691505b6020821081036138dc576138db613882565b5b50919050565b7f455243313135353a2063616c6c6572206973206e6f7420746f6b656e206f776e60008201527f6572206f7220617070726f766564000000000000000000000000000000000000602082015250565b600061393e602e83612c9e565b9150613949826138e2565b604082019050919050565b6000602082019050818103600083015261396d81613931565b9050919050565b7f455243313135353a206163636f756e747320616e6420696473206c656e67746860008201527f206d69736d617463680000000000000000000000000000000000000000000000602082015250565b60006139d0602983612c9e565b91506139db82613974565b604082019050919050565b600060208201905081810360008301526139ff816139c3565b9050919050565b7f4e487b7100000000000000000000000000000000000000000000000000000000600052603260045260246000fd5b7f4e487b7100000000000000000000000000000000000000000000000000000000600052601160045260246000fd5b6000613a6f82612b0b565b91507fffffffffffffffffffffffffffffffffffffffffffffffffffffffffffffffff8203613aa157613aa0613a35565b5b600182019050919050565b7f4f776e61626c653a206e6577206f776e657220697320746865207a65726f206160008201527f6464726573730000000000000000000000000000000000000000000000000000602082015250565b6000613b08602683612c9e565b9150613b1382613aac565b604082019050919050565b60006020820190508181036000830152613b3781613afb565b9050919050565b7f4f776e61626c653a2063616c6c6572206973206e6f7420746865206f776e6572600082015250565b6000613b74602083612c9e565b9150613b7f82613b3e565b602082019050919050565b60006020820190508181036000830152613ba381613b67565b9050919050565b7f455243313135353a206d696e7420746f20746865207a65726f2061646472657360008201527f7300000000000000000000000000000000000000000000000000000000000000602082015250565b6000613c06602183612c9e565b9150613c1182613baa565b604082019050919050565b60006020820190508181036000830152613c3581613bf9565b9050919050565b7f455243313135353a2069647320616e6420616d6f756e7473206c656e6774682060008201527f6d69736d61746368000000000000000000000000000000000000000000000000602082015250565b6000613c98602883612c9e565b9150613ca382613c3c565b604082019050919050565b60006020820190508181036000830152613cc781613c8b565b9050919050565b6000613cd982612b0b565b9150613ce483612b0b565b9250828201905080821115613cfc57613cfb613a35565b5b92915050565b60006040820190508181036000830152613d1c8185613267565b90508181036020830152613d308184613267565b90509392505050565b7f455243313135353a207472616e7366657220746f20746865207a65726f20616460008201527f6472657373000000000000000000000000000000000000000000000000000000602082015250565b6000613d95602583612c9e565b9150613da082613d39565b604082019050919050565b60006020820190508181036000830152613dc481613d88565b9050919050565b7f455243313135353a20696e73756666696369656e742062616c616e636520666f60008201527f72207472616e7366657200000000000000000000000000000000000000000000602082015250565b6000613e27602a83612c9e565b9150613e3282613dcb565b604082019050919050565b60006020820190508181036000830152613e5681613e1a565b9050919050565b7f455243313135353a206275726e2066726f6d20746865207a65726f206164647260008201527f6573730000000000000000000000000000000000000000000000000000000000602082015250565b6000613eb9602383612c9e565b9150613ec482613e5d565b604082019050919050565b60006020820190508181036000830152613ee881613eac565b9050919050565b7f455243313135353a206275726e20616d6f756e7420657863656564732062616c60008201527f616e636500000000000000000000000000000000000000000000000000000000602082015250565b6000613f4b602483612c9e565b9150613f5682613eef565b604082019050919050565b60006020820190508181036000830152613f7a81613f3e565b9050919050565b7f455243313135353a2073657474696e6720617070726f76616c2073746174757360008201527f20666f722073656c660000000000000000000000000000000000000000000000602082015250565b6000613fdd602983612c9e565b9150613fe882613f81565b604082019050919050565b6000602082019050818103600083015261400c81613fd0565b9050919050565b60006040820190506140286000830185612b81565b6140356020830184612b81565b9392505050565b600081519050919050565b600082825260208201905092915050565b60006140638261403c565b61406d8185614047565b935061407d818560208601612caf565b61408681612cd9565b840191505092915050565b600060a0820190506140a66000830188613372565b6140b36020830187613372565b81810360408301526140c58186613267565b905081810360608301526140d98185613267565b905081810360808301526140ed8184614058565b90509695505050505050565b60008151905061410881612bd7565b92915050565b60006020828403121561412457614123612aa3565b5b6000614132848285016140f9565b91505092915050565b60008160e01c9050919050565b600060033d11156141675760046000803e61416460005161413b565b90505b90565b600060443d106141f75761417c612a99565b60043d036004823e80513d602482011167ffffffffffffffff821117156141a45750506141f7565b808201805167ffffffffffffffff8111156141c257505050506141f7565b80602083010160043d0385018111156141df5750505050506141f7565b6141ee82602001850186612d79565b82955050505050505b90565b7f455243313135353a207472616e7366657220746f206e6f6e2d4552433131353560008201527f526563656976657220696d706c656d656e746572000000000000000000000000602082015250565b6000614256603483612c9e565b9150614261826141fa565b604082019050919050565b6000602082019050818103600083015261428581614249565b9050919050565b7f455243313135353a204552433131353552656365697665722072656a6563746560008201527f6420746f6b656e73000000000000000000000000000000000000000000000000602082015250565b60006142e8602883612c9e565b91506142f38261428c565b604082019050919050565b60006020820190508181036000830152614317816142db565b9050919050565b7f5061757361626c653a206e6f7420706175736564000000000000000000000000600082015250565b6000614354601483612c9e565b915061435f8261431e565b602082019050919050565b6000602082019050818103600083015261438381614347565b9050919050565b7f5061757361626c653a2070617573656400000000000000000000000000000000600082015250565b60006143c0601083612c9e565b91506143cb8261438a565b602082019050919050565b600060208201905081810360008301526143ef816143b3565b9050919050565b600060a08201905061440b6000830188613372565b6144186020830187613372565b6144256040830186612b81565b6144326060830185612b81565b81810360808301526144448184614058565b90509695505050505050565b7f455243313135353a206275726e20616d6f756e74206578636565647320746f7460008201527f616c537570706c79000000000000000000000000000000000000000000000000602082015250565b60006144ac602883612c9e565b91506144b782614450565b604082019050919050565b600060208201905081810360008301526144db8161449f565b905091905056fea2646970667358221220927bf474e4d00160206990c3e78eabdec802ec8bacb6168de99193e01a9f4dc164736f6c63430008100033",
  "immutableReferences": {},
  "source": "// SPDX-License-Identifier: MIT\npragma solidity ^0.8.9;\n\nimport \"@openzeppelin/contracts/token/ERC1155/ERC1155.sol\";\nimport \"@openzeppelin/contracts/security/Pausable.sol\";\nimport \"@openzeppelin/contracts/access/Ownable.sol\";\nimport \"@openzeppelin/contracts/token/ERC1155/extensions/ERC1155Burnable.sol\";\nimport \"@openzeppelin/contracts/token/ERC1155/extensions/ERC1155Supply.sol\";\nimport \"@openzeppelin/contracts/utils/Counters.sol\";\n\ncontract BondReceipt is\n    ERC1155,\n    Pausable,\n    Ownable,\n    ERC1155Burnable,\n    ERC1155Supply\n{\n    struct ReceiptDataStruct {\n        uint id;\n        uint256 indexBond;\n        address issuing;\n        address tokenCollateral;\n        uint256 amountCollateral;\n        address tokenRequired;\n        uint256 interestCoupon;\n        uint256[] expireCoupon;\n        uint256 sizeBond;\n    }\n    using Counters for Counters.Counter;\n     Counters.Counter internal idReceipt;\n\n    mapping(uint256 => ReceiptDataStruct) internal receiptData;\n    mapping(address => mapping(uint => uint[])) internal listIdforIndexBond;\n\n\n    constructor() ERC1155(\"\") {}\n\n    function pause() public onlyOwner {\n        _pause();\n    }\n\n    function unpause() public onlyOwner {\n        _unpause();\n    }\n\n    function mint(\n        address account,\n        uint256 amount,\n        bytes memory data,\n        uint256 indexBond,\n        address issuing,\n        address tokenCollateral,\n        uint256 amountCollateral,\n        address tokenRequired,\n        uint256 interestCoupon,\n        uint256[] memory expireCoupon,\n        uint256 sizeBond\n    ) public onlyOwner returns(uint _idReceipt) {\n        _idReceipt = idReceipt.current();\n        idReceipt.increment();\n        _mint(account, indexBond, amount, data);\n        receiptData[indexBond] = (\n            ReceiptDataStruct(\n                _idReceipt,\n                indexBond,\n                issuing,\n                tokenCollateral,\n                amountCollateral,\n                tokenRequired,\n                interestCoupon,\n                expireCoupon,\n                sizeBond\n            )\n        );\n        listIdforIndexBond[account][indexBond].push(_idReceipt);\n        return _idReceipt;\n    }\n\n    function mintBatch(\n        address to,\n        uint256[] memory ids,\n        uint256[] memory amounts,\n        bytes memory data\n    ) public onlyOwner {\n        _mintBatch(to, ids, amounts, data);\n    }\n\n    function _beforeTokenTransfer(\n        address operator,\n        address from,\n        address to,\n        uint256[] memory ids,\n        uint256[] memory amounts,\n        bytes memory data\n    ) internal override(ERC1155, ERC1155Supply) whenNotPaused {\n\n        // qui cambio la lista delle ricevute\n        super._beforeTokenTransfer(operator, from, to, ids, amounts, data);\n    }\n\n\n\n\n\n\n\n\n    function _findIdforIndexBond (address _account, uint _id) internal view returns (uint _indexList){\n        for (_indexList = 0; _indexList < listIdforIndexBond[_account][_id].length; _indexList++) {\n            //if ()\n        }\n\n\n\n    }\n\n    function getInformationReceipt(uint _id) public view returns(ReceiptDataStruct memory){\n        return receiptData[_id];\n    }\n\n\n\n    function updateReceiptData() external {}\n}\n",
  "sourcePath": "/run/media/luk/storage/Studio Dev/Dapp portfolio/bond contract/contracts/bondERC1155.sol",
  "compiler": {
    "name": "solc",
    "version": "0.8.16+commit.07a7930e.Emscripten.clang"
  },
  "schemaVersion": "3.4.11",
  "updatedAt": "2023-01-17T19:26:02.972Z",
  "devdoc": {
    "kind": "dev",
    "methods": {
      "balanceOf(address,uint256)": {
        "details": "See {IERC1155-balanceOf}. Requirements: - `account` cannot be the zero address."
      },
      "balanceOfBatch(address[],uint256[])": {
        "details": "See {IERC1155-balanceOfBatch}. Requirements: - `accounts` and `ids` must have the same length."
      },
      "exists(uint256)": {
        "details": "Indicates whether any token exist with a given id, or not."
      },
      "isApprovedForAll(address,address)": {
        "details": "See {IERC1155-isApprovedForAll}."
      },
      "owner()": {
        "details": "Returns the address of the current owner."
      },
      "paused()": {
        "details": "Returns true if the contract is paused, and false otherwise."
      },
      "renounceOwnership()": {
        "details": "Leaves the contract without owner. It will not be possible to call `onlyOwner` functions anymore. Can only be called by the current owner. NOTE: Renouncing ownership will leave the contract without an owner, thereby removing any functionality that is only available to the owner."
      },
      "safeBatchTransferFrom(address,address,uint256[],uint256[],bytes)": {
        "details": "See {IERC1155-safeBatchTransferFrom}."
      },
      "safeTransferFrom(address,address,uint256,uint256,bytes)": {
        "details": "See {IERC1155-safeTransferFrom}."
      },
      "setApprovalForAll(address,bool)": {
        "details": "See {IERC1155-setApprovalForAll}."
      },
      "supportsInterface(bytes4)": {
        "details": "See {IERC165-supportsInterface}."
      },
      "totalSupply(uint256)": {
        "details": "Total amount of tokens in with a given id."
      },
      "transferOwnership(address)": {
        "details": "Transfers ownership of the contract to a new account (`newOwner`). Can only be called by the current owner."
      },
      "uri(uint256)": {
        "details": "See {IERC1155MetadataURI-uri}. This implementation returns the same URI for *all* token types. It relies on the token type ID substitution mechanism https://eips.ethereum.org/EIPS/eip-1155#metadata[defined in the EIP]. Clients calling this function must replace the `\\{id\\}` substring with the actual token type ID."
      }
    },
    "version": 1
  },
  "userdoc": {
    "kind": "user",
    "methods": {},
    "version": 1
  }
}