{
  "contractName": "BondReceipt721",
  "abi": [
    {
      "inputs": [],
      "stateMutability": "nonpayable",
      "type": "constructor"
    },
    {
      "anonymous": false,
      "inputs": [
        {
          "indexed": true,
          "internalType": "address",
          "name": "owner",
          "type": "address"
        },
        {
          "indexed": true,
          "internalType": "address",
          "name": "approved",
          "type": "address"
        },
        {
          "indexed": true,
          "internalType": "uint256",
          "name": "tokenId",
          "type": "uint256"
        }
      ],
      "name": "Approval",
      "type": "event"
    },
    {
      "anonymous": false,
      "inputs": [
        {
          "indexed": true,
          "internalType": "address",
          "name": "owner",
          "type": "address"
        },
        {
          "indexed": true,
          "internalType": "address",
          "name": "operator",
          "type": "address"
        },
        {
          "indexed": false,
          "internalType": "bool",
          "name": "approved",
          "type": "bool"
        }
      ],
      "name": "ApprovalForAll",
      "type": "event"
    },
    {
      "anonymous": false,
      "inputs": [
        {
          "indexed": true,
          "internalType": "address",
          "name": "previousOwner",
          "type": "address"
        },
        {
          "indexed": true,
          "internalType": "address",
          "name": "newOwner",
          "type": "address"
        }
      ],
      "name": "OwnershipTransferred",
      "type": "event"
    },
    {
      "anonymous": false,
      "inputs": [
        {
          "indexed": false,
          "internalType": "address",
          "name": "account",
          "type": "address"
        }
      ],
      "name": "Paused",
      "type": "event"
    },
    {
      "anonymous": false,
      "inputs": [
        {
          "indexed": true,
          "internalType": "address",
          "name": "from",
          "type": "address"
        },
        {
          "indexed": true,
          "internalType": "address",
          "name": "to",
          "type": "address"
        },
        {
          "indexed": true,
          "internalType": "uint256",
          "name": "tokenId",
          "type": "uint256"
        }
      ],
      "name": "Transfer",
      "type": "event"
    },
    {
      "anonymous": false,
      "inputs": [
        {
          "indexed": false,
          "internalType": "address",
          "name": "account",
          "type": "address"
        }
      ],
      "name": "Unpaused",
      "type": "event"
    },
    {
      "inputs": [
        {
          "internalType": "address",
          "name": "to",
          "type": "address"
        },
        {
          "internalType": "uint256",
          "name": "tokenId",
          "type": "uint256"
        }
      ],
      "name": "approve",
      "outputs": [],
      "stateMutability": "nonpayable",
      "type": "function"
    },
    {
      "inputs": [
        {
          "internalType": "address",
          "name": "owner",
          "type": "address"
        }
      ],
      "name": "balanceOf",
      "outputs": [
        {
          "internalType": "uint256",
          "name": "",
          "type": "uint256"
        }
      ],
      "stateMutability": "view",
      "type": "function"
    },
    {
      "inputs": [
        {
          "internalType": "uint256",
          "name": "tokenId",
          "type": "uint256"
        }
      ],
      "name": "burn",
      "outputs": [],
      "stateMutability": "nonpayable",
      "type": "function"
    },
    {
      "inputs": [
        {
          "internalType": "uint256",
          "name": "tokenId",
          "type": "uint256"
        }
      ],
      "name": "getApproved",
      "outputs": [
        {
          "internalType": "address",
          "name": "",
          "type": "address"
        }
      ],
      "stateMutability": "view",
      "type": "function"
    },
    {
      "inputs": [
        {
          "internalType": "address",
          "name": "owner",
          "type": "address"
        },
        {
          "internalType": "address",
          "name": "operator",
          "type": "address"
        }
      ],
      "name": "isApprovedForAll",
      "outputs": [
        {
          "internalType": "bool",
          "name": "",
          "type": "bool"
        }
      ],
      "stateMutability": "view",
      "type": "function"
    },
    {
      "inputs": [],
      "name": "name",
      "outputs": [
        {
          "internalType": "string",
          "name": "",
          "type": "string"
        }
      ],
      "stateMutability": "view",
      "type": "function"
    },
    {
      "inputs": [],
      "name": "owner",
      "outputs": [
        {
          "internalType": "address",
          "name": "",
          "type": "address"
        }
      ],
      "stateMutability": "view",
      "type": "function"
    },
    {
      "inputs": [
        {
          "internalType": "uint256",
          "name": "tokenId",
          "type": "uint256"
        }
      ],
      "name": "ownerOf",
      "outputs": [
        {
          "internalType": "address",
          "name": "",
          "type": "address"
        }
      ],
      "stateMutability": "view",
      "type": "function"
    },
    {
      "inputs": [],
      "name": "paused",
      "outputs": [
        {
          "internalType": "bool",
          "name": "",
          "type": "bool"
        }
      ],
      "stateMutability": "view",
      "type": "function"
    },
    {
      "inputs": [],
      "name": "renounceOwnership",
      "outputs": [],
      "stateMutability": "nonpayable",
      "type": "function"
    },
    {
      "inputs": [
        {
          "internalType": "address",
          "name": "from",
          "type": "address"
        },
        {
          "internalType": "address",
          "name": "to",
          "type": "address"
        },
        {
          "internalType": "uint256",
          "name": "tokenId",
          "type": "uint256"
        }
      ],
      "name": "safeTransferFrom",
      "outputs": [],
      "stateMutability": "nonpayable",
      "type": "function"
    },
    {
      "inputs": [
        {
          "internalType": "address",
          "name": "from",
          "type": "address"
        },
        {
          "internalType": "address",
          "name": "to",
          "type": "address"
        },
        {
          "internalType": "uint256",
          "name": "tokenId",
          "type": "uint256"
        },
        {
          "internalType": "bytes",
          "name": "data",
          "type": "bytes"
        }
      ],
      "name": "safeTransferFrom",
      "outputs": [],
      "stateMutability": "nonpayable",
      "type": "function"
    },
    {
      "inputs": [
        {
          "internalType": "address",
          "name": "operator",
          "type": "address"
        },
        {
          "internalType": "bool",
          "name": "approved",
          "type": "bool"
        }
      ],
      "name": "setApprovalForAll",
      "outputs": [],
      "stateMutability": "nonpayable",
      "type": "function"
    },
    {
      "inputs": [
        {
          "internalType": "bytes4",
          "name": "interfaceId",
          "type": "bytes4"
        }
      ],
      "name": "supportsInterface",
      "outputs": [
        {
          "internalType": "bool",
          "name": "",
          "type": "bool"
        }
      ],
      "stateMutability": "view",
      "type": "function"
    },
    {
      "inputs": [],
      "name": "symbol",
      "outputs": [
        {
          "internalType": "string",
          "name": "",
          "type": "string"
        }
      ],
      "stateMutability": "view",
      "type": "function"
    },
    {
      "inputs": [
        {
          "internalType": "uint256",
          "name": "tokenId",
          "type": "uint256"
        }
      ],
      "name": "tokenURI",
      "outputs": [
        {
          "internalType": "string",
          "name": "",
          "type": "string"
        }
      ],
      "stateMutability": "view",
      "type": "function"
    },
    {
      "inputs": [
        {
          "internalType": "address",
          "name": "from",
          "type": "address"
        },
        {
          "internalType": "address",
          "name": "to",
          "type": "address"
        },
        {
          "internalType": "uint256",
          "name": "tokenId",
          "type": "uint256"
        }
      ],
      "name": "transferFrom",
      "outputs": [],
      "stateMutability": "nonpayable",
      "type": "function"
    },
    {
      "inputs": [
        {
          "internalType": "address",
          "name": "newOwner",
          "type": "address"
        }
      ],
      "name": "transferOwnership",
      "outputs": [],
      "stateMutability": "nonpayable",
      "type": "function"
    },
    {
      "inputs": [],
      "name": "pause",
      "outputs": [],
      "stateMutability": "nonpayable",
      "type": "function"
    },
    {
      "inputs": [],
      "name": "unpause",
      "outputs": [],
      "stateMutability": "nonpayable",
      "type": "function"
    },
    {
      "inputs": [
        {
          "internalType": "address",
          "name": "to",
          "type": "address"
        },
        {
          "internalType": "uint256",
          "name": "amount",
          "type": "uint256"
        },
        {
          "internalType": "uint256",
          "name": "indexBond",
          "type": "uint256"
        },
        {
          "internalType": "address",
          "name": "issuing",
          "type": "address"
        },
        {
          "internalType": "address",
          "name": "tokenCollateral",
          "type": "address"
        },
        {
          "internalType": "uint256",
          "name": "amountCollateral",
          "type": "uint256"
        },
        {
          "internalType": "address",
          "name": "tokenRequired",
          "type": "address"
        },
        {
          "internalType": "uint256",
          "name": "interestCoupon",
          "type": "uint256"
        },
        {
          "internalType": "uint256[]",
          "name": "expireCoupon",
          "type": "uint256[]"
        },
        {
          "internalType": "uint256",
          "name": "sizeBond",
          "type": "uint256"
        }
      ],
      "name": "safeMint",
      "outputs": [
        {
          "internalType": "uint256[]",
          "name": "",
          "type": "uint256[]"
        }
      ],
      "stateMutability": "nonpayable",
      "type": "function"
    },
    {
      "inputs": [
        {
          "internalType": "uint256",
          "name": "_id",
          "type": "uint256"
        }
      ],
      "name": "getInformationReceipt",
      "outputs": [
        {
          "components": [
            {
              "internalType": "uint256",
              "name": "id",
              "type": "uint256"
            },
            {
              "internalType": "uint256",
              "name": "indexBond",
              "type": "uint256"
            },
            {
              "internalType": "address",
              "name": "issuing",
              "type": "address"
            },
            {
              "internalType": "address",
              "name": "tokenCollateral",
              "type": "address"
            },
            {
              "internalType": "uint256",
              "name": "amountCollateral",
              "type": "uint256"
            },
            {
              "internalType": "address",
              "name": "tokenRequired",
              "type": "address"
            },
            {
              "internalType": "uint256",
              "name": "interestCoupon",
              "type": "uint256"
            },
            {
              "internalType": "uint256[]",
              "name": "expireCoupon",
              "type": "uint256[]"
            },
            {
              "internalType": "uint256",
              "name": "sizeBond",
              "type": "uint256"
            }
          ],
          "internalType": "struct BondReceipt721.ReceiptDataStruct",
          "name": "",
          "type": "tuple"
        }
      ],
      "stateMutability": "view",
      "type": "function"
    },
    {
      "inputs": [
        {
          "internalType": "address",
          "name": "_user",
          "type": "address"
        },
        {
          "internalType": "uint256",
          "name": "_bondIndex",
          "type": "uint256"
        }
      ],
      "name": "balanceOfBonds",
      "outputs": [
        {
          "internalType": "uint256",
          "name": "balanceBonds",
          "type": "uint256"
        }
      ],
      "stateMutability": "view",
      "type": "function"
    },
    {
      "inputs": [
        {
          "internalType": "address",
          "name": "_user",
          "type": "address"
        },
        {
          "internalType": "uint256",
          "name": "_bondIndex",
          "type": "uint256"
        }
      ],
      "name": "ListIdReceiptForBonds",
      "outputs": [
        {
          "internalType": "uint256[]",
          "name": "",
          "type": "uint256[]"
        }
      ],
      "stateMutability": "view",
      "type": "function"
    }
  ],
  "bytecode": "0x60806040523480156200001157600080fd5b506040518060400160405280600781526020017f4d79546f6b656e000000000000000000000000000000000000000000000000008152506040518060400160405280600381526020017f4d544b000000000000000000000000000000000000000000000000000000000081525081600090816200008f91906200042d565b508060019081620000a191906200042d565b5050506000600660006101000a81548160ff021916908315150217905550620000df620000d3620000e560201b60201c565b620000ed60201b60201c565b62000514565b600033905090565b6000600660019054906101000a900473ffffffffffffffffffffffffffffffffffffffff16905081600660016101000a81548173ffffffffffffffffffffffffffffffffffffffff021916908373ffffffffffffffffffffffffffffffffffffffff1602179055508173ffffffffffffffffffffffffffffffffffffffff168173ffffffffffffffffffffffffffffffffffffffff167f8be0079c531659141344cd1fd0a4f28419497f9722a3daafe3b4186f6b6457e060405160405180910390a35050565b600081519050919050565b7f4e487b7100000000000000000000000000000000000000000000000000000000600052604160045260246000fd5b7f4e487b7100000000000000000000000000000000000000000000000000000000600052602260045260246000fd5b600060028204905060018216806200023557607f821691505b6020821081036200024b576200024a620001ed565b5b50919050565b60008190508160005260206000209050919050565b60006020601f8301049050919050565b600082821b905092915050565b600060088302620002b57fffffffffffffffffffffffffffffffffffffffffffffffffffffffffffffffff8262000276565b620002c1868362000276565b95508019841693508086168417925050509392505050565b6000819050919050565b6000819050919050565b60006200030e620003086200030284620002d9565b620002e3565b620002d9565b9050919050565b6000819050919050565b6200032a83620002ed565b62000342620003398262000315565b84845462000283565b825550505050565b600090565b620003596200034a565b620003668184846200031f565b505050565b5b818110156200038e57620003826000826200034f565b6001810190506200036c565b5050565b601f821115620003dd57620003a78162000251565b620003b28462000266565b81016020851015620003c2578190505b620003da620003d18562000266565b8301826200036b565b50505b505050565b600082821c905092915050565b60006200040260001984600802620003e2565b1980831691505092915050565b60006200041d8383620003ef565b9150826002028217905092915050565b6200043882620001b3565b67ffffffffffffffff811115620004545762000453620001be565b5b6200046082546200021c565b6200046d82828562000392565b600060209050601f831160018114620004a5576000841562000490578287015190505b6200049c85826200040f565b8655506200050c565b601f198416620004b58662000251565b60005b82811015620004df57848901518255600182019150602085019450602081019050620004b8565b86831015620004ff5784890151620004fb601f891682620003ef565b8355505b6001600288020188555050505b505050505050565b613aae80620005246000396000f3fe608060405234801561001057600080fd5b50600436106101585760003560e01c80638456cb59116100c3578063b88d4fde1161007c578063b88d4fde1461039f578063c87b56dd146103bb578063cdf13120146103eb578063df46c59c1461041b578063e985e9c51461044b578063f2fde38b1461047b57610158565b80638456cb59146102dd5780638da5cb5b146102e757806395d89b4114610305578063a22cb46514610323578063ac46a9b81461033f578063b3d8e3c11461036f57610158565b806342842e0e1161011557806342842e0e1461021d57806342966c68146102395780635c975abb146102555780636352211e1461027357806370a08231146102a3578063715018a6146102d357610158565b806301ffc9a71461015d57806306fdde031461018d578063081812fc146101ab578063095ea7b3146101db57806323b872dd146101f75780633f4ba83a14610213575b600080fd5b610177600480360381019061017291906126be565b610497565b6040516101849190612706565b60405180910390f35b610195610579565b6040516101a291906127b1565b60405180910390f35b6101c560048036038101906101c09190612809565b61060b565b6040516101d29190612877565b60405180910390f35b6101f560048036038101906101f091906128be565b610651565b005b610211600480360381019061020c91906128fe565b610768565b005b61021b6107c8565b005b610237600480360381019061023291906128fe565b6107da565b005b610253600480360381019061024e9190612809565b6107fa565b005b61025d610856565b60405161026a9190612706565b60405180910390f35b61028d60048036038101906102889190612809565b61086d565b60405161029a9190612877565b60405180910390f35b6102bd60048036038101906102b89190612951565b6108f3565b6040516102ca919061298d565b60405180910390f35b6102db6109aa565b005b6102e56109be565b005b6102ef6109d0565b6040516102fc9190612877565b60405180910390f35b61030d6109fa565b60405161031a91906127b1565b60405180910390f35b61033d600480360381019061033891906129d4565b610a8c565b005b61035960048036038101906103549190612b5c565b610aa2565b6040516103669190612d15565b60405180910390f35b610389600480360381019061038491906128be565b610da1565b6040516103969190612d15565b60405180910390f35b6103b960048036038101906103b49190612dec565b610e4a565b005b6103d560048036038101906103d09190612809565b610eac565b6040516103e291906127b1565b60405180910390f35b610405600480360381019061040091906128be565b610f14565b604051610412919061298d565b60405180910390f35b61043560048036038101906104309190612809565b610f72565b6040516104429190612fb2565b60405180910390f35b61046560048036038101906104609190612fd4565b61112c565b6040516104729190612706565b60405180910390f35b61049560048036038101906104909190612951565b6111c0565b005b60007f80ac58cd000000000000000000000000000000000000000000000000000000007bffffffffffffffffffffffffffffffffffffffffffffffffffffffff1916827bffffffffffffffffffffffffffffffffffffffffffffffffffffffff1916148061056257507f5b5e139f000000000000000000000000000000000000000000000000000000007bffffffffffffffffffffffffffffffffffffffffffffffffffffffff1916827bffffffffffffffffffffffffffffffffffffffffffffffffffffffff1916145b80610572575061057182611243565b5b9050919050565b60606000805461058890613043565b80601f01602080910402602001604051908101604052809291908181526020018280546105b490613043565b80156106015780601f106105d657610100808354040283529160200191610601565b820191906000526020600020905b8154815290600101906020018083116105e457829003601f168201915b5050505050905090565b6000610616826112ad565b6004600083815260200190815260200160002060009054906101000a900473ffffffffffffffffffffffffffffffffffffffff169050919050565b600061065c8261086d565b90508073ffffffffffffffffffffffffffffffffffffffff168373ffffffffffffffffffffffffffffffffffffffff16036106cc576040517f08c379a00000000000000000000000000000000000000000000000000000000081526004016106c3906130e6565b60405180910390fd5b8073ffffffffffffffffffffffffffffffffffffffff166106eb6112f8565b73ffffffffffffffffffffffffffffffffffffffff16148061071a5750610719816107146112f8565b61112c565b5b610759576040517f08c379a000000000000000000000000000000000000000000000000000000000815260040161075090613178565b60405180910390fd5b6107638383611300565b505050565b6107796107736112f8565b826113b9565b6107b8576040517f08c379a00000000000000000000000000000000000000000000000000000000081526004016107af9061320a565b60405180910390fd5b6107c383838361144e565b505050565b6107d0611747565b6107d86117c5565b565b6107f583838360405180602001604052806000815250610e4a565b505050565b61080b6108056112f8565b826113b9565b61084a576040517f08c379a00000000000000000000000000000000000000000000000000000000081526004016108419061320a565b60405180910390fd5b61085381611828565b50565b6000600660009054906101000a900460ff16905090565b60008061087983611976565b9050600073ffffffffffffffffffffffffffffffffffffffff168173ffffffffffffffffffffffffffffffffffffffff16036108ea576040517f08c379a00000000000000000000000000000000000000000000000000000000081526004016108e190613276565b60405180910390fd5b80915050919050565b60008073ffffffffffffffffffffffffffffffffffffffff168273ffffffffffffffffffffffffffffffffffffffff1603610963576040517f08c379a000000000000000000000000000000000000000000000000000000000815260040161095a90613308565b60405180910390fd5b600360008373ffffffffffffffffffffffffffffffffffffffff1673ffffffffffffffffffffffffffffffffffffffff168152602001908152602001600020549050919050565b6109b2611747565b6109bc60006119b3565b565b6109c6611747565b6109ce611a79565b565b6000600660019054906101000a900473ffffffffffffffffffffffffffffffffffffffff16905090565b606060018054610a0990613043565b80601f0160208091040260200160405190810160405280929190818152602001828054610a3590613043565b8015610a825780601f10610a5757610100808354040283529160200191610a82565b820191906000526020600020905b815481529060010190602001808311610a6557829003601f168201915b5050505050905090565b610a9e610a976112f8565b8383611adc565b5050565b6060610aac611747565b60008a67ffffffffffffffff811115610ac857610ac7612a19565b5b604051908082528060200260200182016040528015610af65781602001602082028036833780820191505090505b50905060005b8b811015610d8e576000610b106009611c48565b9050610b1c6009611c56565b610b268e82611c6c565b6040518061012001604052808281526020018d81526020018c73ffffffffffffffffffffffffffffffffffffffff1681526020018b73ffffffffffffffffffffffffffffffffffffffff1681526020018a81526020018973ffffffffffffffffffffffffffffffffffffffff1681526020018881526020018781526020018681525060076000838152602001908152602001600020600082015181600001556020820151816001015560408201518160020160006101000a81548173ffffffffffffffffffffffffffffffffffffffff021916908373ffffffffffffffffffffffffffffffffffffffff16021790555060608201518160030160006101000a81548173ffffffffffffffffffffffffffffffffffffffff021916908373ffffffffffffffffffffffffffffffffffffffff1602179055506080820151816004015560a08201518160050160006101000a81548173ffffffffffffffffffffffffffffffffffffffff021916908373ffffffffffffffffffffffffffffffffffffffff16021790555060c0820151816006015560e0820151816007019080519060200190610cd492919061255a565b506101008201518160080155905050600860008f73ffffffffffffffffffffffffffffffffffffffff1673ffffffffffffffffffffffffffffffffffffffff16815260200190815260200160002060008d815260200190815260200160002081908060018154018082558091505060019003906000526020600020016000909190919091505580838381518110610d6e57610d6d613328565b5b602002602001018181525050508080610d8690613386565b915050610afc565b50809150509a9950505050505050505050565b6060600860008473ffffffffffffffffffffffffffffffffffffffff1673ffffffffffffffffffffffffffffffffffffffff1681526020019081526020016000206000838152602001908152602001600020805480602002602001604051908101604052809291908181526020018280548015610e3d57602002820191906000526020600020905b815481526020019060010190808311610e29575b5050505050905092915050565b610e5b610e556112f8565b836113b9565b610e9a576040517f08c379a0000000000000000000000000000000000000000000000000000000008152600401610e919061320a565b60405180910390fd5b610ea684848484611c8a565b50505050565b6060610eb7826112ad565b6000610ec1611ce6565b90506000815111610ee15760405180602001604052806000815250610f0c565b80610eeb84611cfd565b604051602001610efc92919061340a565b6040516020818303038152906040525b915050919050565b6000600860008473ffffffffffffffffffffffffffffffffffffffff1673ffffffffffffffffffffffffffffffffffffffff168152602001908152602001600020600083815260200190815260200160002080549050905092915050565b610f7a6125a7565b600760008381526020019081526020016000206040518061012001604052908160008201548152602001600182015481526020016002820160009054906101000a900473ffffffffffffffffffffffffffffffffffffffff1673ffffffffffffffffffffffffffffffffffffffff1673ffffffffffffffffffffffffffffffffffffffff1681526020016003820160009054906101000a900473ffffffffffffffffffffffffffffffffffffffff1673ffffffffffffffffffffffffffffffffffffffff1673ffffffffffffffffffffffffffffffffffffffff168152602001600482015481526020016005820160009054906101000a900473ffffffffffffffffffffffffffffffffffffffff1673ffffffffffffffffffffffffffffffffffffffff1673ffffffffffffffffffffffffffffffffffffffff168152602001600682015481526020016007820180548060200260200160405190810160405280929190818152602001828054801561111257602002820191906000526020600020905b8154815260200190600101908083116110fe575b505050505081526020016008820154815250509050919050565b6000600560008473ffffffffffffffffffffffffffffffffffffffff1673ffffffffffffffffffffffffffffffffffffffff16815260200190815260200160002060008373ffffffffffffffffffffffffffffffffffffffff1673ffffffffffffffffffffffffffffffffffffffff16815260200190815260200160002060009054906101000a900460ff16905092915050565b6111c8611747565b600073ffffffffffffffffffffffffffffffffffffffff168173ffffffffffffffffffffffffffffffffffffffff1603611237576040517f08c379a000000000000000000000000000000000000000000000000000000000815260040161122e906134a0565b60405180910390fd5b611240816119b3565b50565b60007f01ffc9a7000000000000000000000000000000000000000000000000000000007bffffffffffffffffffffffffffffffffffffffffffffffffffffffff1916827bffffffffffffffffffffffffffffffffffffffffffffffffffffffff1916149050919050565b6112b681611dcb565b6112f5576040517f08c379a00000000000000000000000000000000000000000000000000000000081526004016112ec90613276565b60405180910390fd5b50565b600033905090565b816004600083815260200190815260200160002060006101000a81548173ffffffffffffffffffffffffffffffffffffffff021916908373ffffffffffffffffffffffffffffffffffffffff160217905550808273ffffffffffffffffffffffffffffffffffffffff166113738361086d565b73ffffffffffffffffffffffffffffffffffffffff167f8c5be1e5ebec7d5bd14f71427d1e84f3dd0314c0f7b2291e5b200ac8c7c3b92560405160405180910390a45050565b6000806113c58361086d565b90508073ffffffffffffffffffffffffffffffffffffffff168473ffffffffffffffffffffffffffffffffffffffff1614806114075750611406818561112c565b5b8061144557508373ffffffffffffffffffffffffffffffffffffffff1661142d8461060b565b73ffffffffffffffffffffffffffffffffffffffff16145b91505092915050565b8273ffffffffffffffffffffffffffffffffffffffff1661146e8261086d565b73ffffffffffffffffffffffffffffffffffffffff16146114c4576040517f08c379a00000000000000000000000000000000000000000000000000000000081526004016114bb90613532565b60405180910390fd5b600073ffffffffffffffffffffffffffffffffffffffff168273ffffffffffffffffffffffffffffffffffffffff1603611533576040517f08c379a000000000000000000000000000000000000000000000000000000000815260040161152a906135c4565b60405180910390fd5b6115408383836001611e0c565b8273ffffffffffffffffffffffffffffffffffffffff166115608261086d565b73ffffffffffffffffffffffffffffffffffffffff16146115b6576040517f08c379a00000000000000000000000000000000000000000000000000000000081526004016115ad90613532565b60405180910390fd5b6004600082815260200190815260200160002060006101000a81549073ffffffffffffffffffffffffffffffffffffffff02191690556001600360008573ffffffffffffffffffffffffffffffffffffffff1673ffffffffffffffffffffffffffffffffffffffff168152602001908152602001600020600082825403925050819055506001600360008473ffffffffffffffffffffffffffffffffffffffff1673ffffffffffffffffffffffffffffffffffffffff16815260200190815260200160002060008282540192505081905550816002600083815260200190815260200160002060006101000a81548173ffffffffffffffffffffffffffffffffffffffff021916908373ffffffffffffffffffffffffffffffffffffffff160217905550808273ffffffffffffffffffffffffffffffffffffffff168473ffffffffffffffffffffffffffffffffffffffff167fddf252ad1be2c89b69c2b068fc378daa952ba7f163c4a11628f55a4df523b3ef60405160405180910390a46117428383836001611e26565b505050565b61174f6112f8565b73ffffffffffffffffffffffffffffffffffffffff1661176d6109d0565b73ffffffffffffffffffffffffffffffffffffffff16146117c3576040517f08c379a00000000000000000000000000000000000000000000000000000000081526004016117ba90613630565b60405180910390fd5b565b6117cd611e2c565b6000600660006101000a81548160ff0219169083151502179055507f5db9ee0a495bf2e6ff9c91a7834c1ba4fdd244a5e8aa4e537bd38aeae4b073aa6118116112f8565b60405161181e9190612877565b60405180910390a1565b60006118338261086d565b9050611843816000846001611e0c565b61184c8261086d565b90506004600083815260200190815260200160002060006101000a81549073ffffffffffffffffffffffffffffffffffffffff02191690556001600360008373ffffffffffffffffffffffffffffffffffffffff1673ffffffffffffffffffffffffffffffffffffffff168152602001908152602001600020600082825403925050819055506002600083815260200190815260200160002060006101000a81549073ffffffffffffffffffffffffffffffffffffffff021916905581600073ffffffffffffffffffffffffffffffffffffffff168273ffffffffffffffffffffffffffffffffffffffff167fddf252ad1be2c89b69c2b068fc378daa952ba7f163c4a11628f55a4df523b3ef60405160405180910390a4611972816000846001611e26565b5050565b60006002600083815260200190815260200160002060009054906101000a900473ffffffffffffffffffffffffffffffffffffffff169050919050565b6000600660019054906101000a900473ffffffffffffffffffffffffffffffffffffffff16905081600660016101000a81548173ffffffffffffffffffffffffffffffffffffffff021916908373ffffffffffffffffffffffffffffffffffffffff1602179055508173ffffffffffffffffffffffffffffffffffffffff168173ffffffffffffffffffffffffffffffffffffffff167f8be0079c531659141344cd1fd0a4f28419497f9722a3daafe3b4186f6b6457e060405160405180910390a35050565b611a81611e75565b6001600660006101000a81548160ff0219169083151502179055507f62e78cea01bee320cd4e420270b5ea74000d11b0c9f74754ebdbfc544b05a258611ac56112f8565b604051611ad29190612877565b60405180910390a1565b8173ffffffffffffffffffffffffffffffffffffffff168373ffffffffffffffffffffffffffffffffffffffff1603611b4a576040517f08c379a0000000000000000000000000000000000000000000000000000000008152600401611b419061369c565b60405180910390fd5b80600560008573ffffffffffffffffffffffffffffffffffffffff1673ffffffffffffffffffffffffffffffffffffffff16815260200190815260200160002060008473ffffffffffffffffffffffffffffffffffffffff1673ffffffffffffffffffffffffffffffffffffffff16815260200190815260200160002060006101000a81548160ff0219169083151502179055508173ffffffffffffffffffffffffffffffffffffffff168373ffffffffffffffffffffffffffffffffffffffff167f17307eab39ab6107e8899845ad3d59bd9653f200f220920489ca2b5937696c3183604051611c3b9190612706565b60405180910390a3505050565b600081600001549050919050565b6001816000016000828254019250508190555050565b611c86828260405180602001604052806000815250611ebf565b5050565b611c9584848461144e565b611ca184848484611f1a565b611ce0576040517f08c379a0000000000000000000000000000000000000000000000000000000008152600401611cd79061372e565b60405180910390fd5b50505050565b606060405180602001604052806000815250905090565b606060006001611d0c846120a1565b01905060008167ffffffffffffffff811115611d2b57611d2a612a19565b5b6040519080825280601f01601f191660200182016040528015611d5d5781602001600182028036833780820191505090505b509050600082602001820190505b600115611dc0578080600190039150507f3031323334353637383961626364656600000000000000000000000000000000600a86061a8153600a8581611db457611db361374e565b5b04945060008503611d6b575b819350505050919050565b60008073ffffffffffffffffffffffffffffffffffffffff16611ded83611976565b73ffffffffffffffffffffffffffffffffffffffff1614159050919050565b611e14611e75565b611e20848484846121f4565b50505050565b50505050565b611e34610856565b611e73576040517f08c379a0000000000000000000000000000000000000000000000000000000008152600401611e6a906137c9565b60405180910390fd5b565b611e7d610856565b15611ebd576040517f08c379a0000000000000000000000000000000000000000000000000000000008152600401611eb490613835565b60405180910390fd5b565b611ec9838361231a565b611ed66000848484611f1a565b611f15576040517f08c379a0000000000000000000000000000000000000000000000000000000008152600401611f0c9061372e565b60405180910390fd5b505050565b6000611f3b8473ffffffffffffffffffffffffffffffffffffffff16612537565b15612094578373ffffffffffffffffffffffffffffffffffffffff1663150b7a02611f646112f8565b8786866040518563ffffffff1660e01b8152600401611f8694939291906138aa565b6020604051808303816000875af1925050508015611fc257506040513d601f19601f82011682018060405250810190611fbf919061390b565b60015b612044573d8060008114611ff2576040519150601f19603f3d011682016040523d82523d6000602084013e611ff7565b606091505b50600081510361203c576040517f08c379a00000000000000000000000000000000000000000000000000000000081526004016120339061372e565b60405180910390fd5b805181602001fd5b63150b7a0260e01b7bffffffffffffffffffffffffffffffffffffffffffffffffffffffff1916817bffffffffffffffffffffffffffffffffffffffffffffffffffffffff191614915050612099565b600190505b949350505050565b600080600090507a184f03e93ff9f4daa797ed6e38ed64bf6a1f01000000000000000083106120ff577a184f03e93ff9f4daa797ed6e38ed64bf6a1f01000000000000000083816120f5576120f461374e565b5b0492506040810190505b6d04ee2d6d415b85acef8100000000831061213c576d04ee2d6d415b85acef810000000083816121325761213161374e565b5b0492506020810190505b662386f26fc10000831061216b57662386f26fc1000083816121615761216061374e565b5b0492506010810190505b6305f5e1008310612194576305f5e100838161218a5761218961374e565b5b0492506008810190505b61271083106121b95761271083816121af576121ae61374e565b5b0492506004810190505b606483106121dc57606483816121d2576121d161374e565b5b0492506002810190505b600a83106121eb576001810190505b80915050919050565b600181111561231457600073ffffffffffffffffffffffffffffffffffffffff168473ffffffffffffffffffffffffffffffffffffffff16146122885780600360008673ffffffffffffffffffffffffffffffffffffffff1673ffffffffffffffffffffffffffffffffffffffff16815260200190815260200160002060008282546122809190613938565b925050819055505b600073ffffffffffffffffffffffffffffffffffffffff168373ffffffffffffffffffffffffffffffffffffffff16146123135780600360008573ffffffffffffffffffffffffffffffffffffffff1673ffffffffffffffffffffffffffffffffffffffff168152602001908152602001600020600082825461230b919061396c565b925050819055505b5b50505050565b600073ffffffffffffffffffffffffffffffffffffffff168273ffffffffffffffffffffffffffffffffffffffff1603612389576040517f08c379a0000000000000000000000000000000000000000000000000000000008152600401612380906139ec565b60405180910390fd5b61239281611dcb565b156123d2576040517f08c379a00000000000000000000000000000000000000000000000000000000081526004016123c990613a58565b60405180910390fd5b6123e0600083836001611e0c565b6123e981611dcb565b15612429576040517f08c379a000000000000000000000000000000000000000000000000000000000815260040161242090613a58565b60405180910390fd5b6001600360008473ffffffffffffffffffffffffffffffffffffffff1673ffffffffffffffffffffffffffffffffffffffff16815260200190815260200160002060008282540192505081905550816002600083815260200190815260200160002060006101000a81548173ffffffffffffffffffffffffffffffffffffffff021916908373ffffffffffffffffffffffffffffffffffffffff160217905550808273ffffffffffffffffffffffffffffffffffffffff16600073ffffffffffffffffffffffffffffffffffffffff167fddf252ad1be2c89b69c2b068fc378daa952ba7f163c4a11628f55a4df523b3ef60405160405180910390a4612533600083836001611e26565b5050565b6000808273ffffffffffffffffffffffffffffffffffffffff163b119050919050565b828054828255906000526020600020908101928215612596579160200282015b8281111561259557825182559160200191906001019061257a565b5b5090506125a39190612635565b5090565b6040518061012001604052806000815260200160008152602001600073ffffffffffffffffffffffffffffffffffffffff168152602001600073ffffffffffffffffffffffffffffffffffffffff16815260200160008152602001600073ffffffffffffffffffffffffffffffffffffffff1681526020016000815260200160608152602001600081525090565b5b8082111561264e576000816000905550600101612636565b5090565b6000604051905090565b600080fd5b600080fd5b60007fffffffff0000000000000000000000000000000000000000000000000000000082169050919050565b61269b81612666565b81146126a657600080fd5b50565b6000813590506126b881612692565b92915050565b6000602082840312156126d4576126d361265c565b5b60006126e2848285016126a9565b91505092915050565b60008115159050919050565b612700816126eb565b82525050565b600060208201905061271b60008301846126f7565b92915050565b600081519050919050565b600082825260208201905092915050565b60005b8381101561275b578082015181840152602081019050612740565b60008484015250505050565b6000601f19601f8301169050919050565b600061278382612721565b61278d818561272c565b935061279d81856020860161273d565b6127a681612767565b840191505092915050565b600060208201905081810360008301526127cb8184612778565b905092915050565b6000819050919050565b6127e6816127d3565b81146127f157600080fd5b50565b600081359050612803816127dd565b92915050565b60006020828403121561281f5761281e61265c565b5b600061282d848285016127f4565b91505092915050565b600073ffffffffffffffffffffffffffffffffffffffff82169050919050565b600061286182612836565b9050919050565b61287181612856565b82525050565b600060208201905061288c6000830184612868565b92915050565b61289b81612856565b81146128a657600080fd5b50565b6000813590506128b881612892565b92915050565b600080604083850312156128d5576128d461265c565b5b60006128e3858286016128a9565b92505060206128f4858286016127f4565b9150509250929050565b6000806000606084860312156129175761291661265c565b5b6000612925868287016128a9565b9350506020612936868287016128a9565b9250506040612947868287016127f4565b9150509250925092565b6000602082840312156129675761296661265c565b5b6000612975848285016128a9565b91505092915050565b612987816127d3565b82525050565b60006020820190506129a2600083018461297e565b92915050565b6129b1816126eb565b81146129bc57600080fd5b50565b6000813590506129ce816129a8565b92915050565b600080604083850312156129eb576129ea61265c565b5b60006129f9858286016128a9565b9250506020612a0a858286016129bf565b9150509250929050565b600080fd5b7f4e487b7100000000000000000000000000000000000000000000000000000000600052604160045260246000fd5b612a5182612767565b810181811067ffffffffffffffff82111715612a7057612a6f612a19565b5b80604052505050565b6000612a83612652565b9050612a8f8282612a48565b919050565b600067ffffffffffffffff821115612aaf57612aae612a19565b5b602082029050602081019050919050565b600080fd5b6000612ad8612ad384612a94565b612a79565b90508083825260208201905060208402830185811115612afb57612afa612ac0565b5b835b81811015612b245780612b1088826127f4565b845260208401935050602081019050612afd565b5050509392505050565b600082601f830112612b4357612b42612a14565b5b8135612b53848260208601612ac5565b91505092915050565b6000806000806000806000806000806101408b8d031215612b8057612b7f61265c565b5b6000612b8e8d828e016128a9565b9a50506020612b9f8d828e016127f4565b9950506040612bb08d828e016127f4565b9850506060612bc18d828e016128a9565b9750506080612bd28d828e016128a9565b96505060a0612be38d828e016127f4565b95505060c0612bf48d828e016128a9565b94505060e0612c058d828e016127f4565b9350506101008b013567ffffffffffffffff811115612c2757612c26612661565b5b612c338d828e01612b2e565b925050610120612c458d828e016127f4565b9150509295989b9194979a5092959850565b600081519050919050565b600082825260208201905092915050565b6000819050602082019050919050565b612c8c816127d3565b82525050565b6000612c9e8383612c83565b60208301905092915050565b6000602082019050919050565b6000612cc282612c57565b612ccc8185612c62565b9350612cd783612c73565b8060005b83811015612d08578151612cef8882612c92565b9750612cfa83612caa565b925050600181019050612cdb565b5085935050505092915050565b60006020820190508181036000830152612d2f8184612cb7565b905092915050565b600080fd5b600067ffffffffffffffff821115612d5757612d56612a19565b5b612d6082612767565b9050602081019050919050565b82818337600083830152505050565b6000612d8f612d8a84612d3c565b612a79565b905082815260208101848484011115612dab57612daa612d37565b5b612db6848285612d6d565b509392505050565b600082601f830112612dd357612dd2612a14565b5b8135612de3848260208601612d7c565b91505092915050565b60008060008060808587031215612e0657612e0561265c565b5b6000612e14878288016128a9565b9450506020612e25878288016128a9565b9350506040612e36878288016127f4565b925050606085013567ffffffffffffffff811115612e5757612e56612661565b5b612e6387828801612dbe565b91505092959194509250565b612e7881612856565b82525050565b600082825260208201905092915050565b6000612e9a82612c57565b612ea48185612e7e565b9350612eaf83612c73565b8060005b83811015612ee0578151612ec78882612c92565b9750612ed283612caa565b925050600181019050612eb3565b5085935050505092915050565b600061012083016000830151612f066000860182612c83565b506020830151612f196020860182612c83565b506040830151612f2c6040860182612e6f565b506060830151612f3f6060860182612e6f565b506080830151612f526080860182612c83565b5060a0830151612f6560a0860182612e6f565b5060c0830151612f7860c0860182612c83565b5060e083015184820360e0860152612f908282612e8f565b915050610100830151612fa7610100860182612c83565b508091505092915050565b60006020820190508181036000830152612fcc8184612eed565b905092915050565b60008060408385031215612feb57612fea61265c565b5b6000612ff9858286016128a9565b925050602061300a858286016128a9565b9150509250929050565b7f4e487b7100000000000000000000000000000000000000000000000000000000600052602260045260246000fd5b6000600282049050600182168061305b57607f821691505b60208210810361306e5761306d613014565b5b50919050565b7f4552433732313a20617070726f76616c20746f2063757272656e74206f776e6560008201527f7200000000000000000000000000000000000000000000000000000000000000602082015250565b60006130d060218361272c565b91506130db82613074565b604082019050919050565b600060208201905081810360008301526130ff816130c3565b9050919050565b7f4552433732313a20617070726f76652063616c6c6572206973206e6f7420746f60008201527f6b656e206f776e6572206f7220617070726f76656420666f7220616c6c000000602082015250565b6000613162603d8361272c565b915061316d82613106565b604082019050919050565b6000602082019050818103600083015261319181613155565b9050919050565b7f4552433732313a2063616c6c6572206973206e6f7420746f6b656e206f776e6560008201527f72206f7220617070726f76656400000000000000000000000000000000000000602082015250565b60006131f4602d8361272c565b91506131ff82613198565b604082019050919050565b60006020820190508181036000830152613223816131e7565b9050919050565b7f4552433732313a20696e76616c696420746f6b656e2049440000000000000000600082015250565b600061326060188361272c565b915061326b8261322a565b602082019050919050565b6000602082019050818103600083015261328f81613253565b9050919050565b7f4552433732313a2061646472657373207a65726f206973206e6f74206120766160008201527f6c6964206f776e65720000000000000000000000000000000000000000000000602082015250565b60006132f260298361272c565b91506132fd82613296565b604082019050919050565b60006020820190508181036000830152613321816132e5565b9050919050565b7f4e487b7100000000000000000000000000000000000000000000000000000000600052603260045260246000fd5b7f4e487b7100000000000000000000000000000000000000000000000000000000600052601160045260246000fd5b6000613391826127d3565b91507fffffffffffffffffffffffffffffffffffffffffffffffffffffffffffffffff82036133c3576133c2613357565b5b600182019050919050565b600081905092915050565b60006133e482612721565b6133ee81856133ce565b93506133fe81856020860161273d565b80840191505092915050565b600061341682856133d9565b915061342282846133d9565b91508190509392505050565b7f4f776e61626c653a206e6577206f776e657220697320746865207a65726f206160008201527f6464726573730000000000000000000000000000000000000000000000000000602082015250565b600061348a60268361272c565b91506134958261342e565b604082019050919050565b600060208201905081810360008301526134b98161347d565b9050919050565b7f4552433732313a207472616e736665722066726f6d20696e636f72726563742060008201527f6f776e6572000000000000000000000000000000000000000000000000000000602082015250565b600061351c60258361272c565b9150613527826134c0565b604082019050919050565b6000602082019050818103600083015261354b8161350f565b9050919050565b7f4552433732313a207472616e7366657220746f20746865207a65726f2061646460008201527f7265737300000000000000000000000000000000000000000000000000000000602082015250565b60006135ae60248361272c565b91506135b982613552565b604082019050919050565b600060208201905081810360008301526135dd816135a1565b9050919050565b7f4f776e61626c653a2063616c6c6572206973206e6f7420746865206f776e6572600082015250565b600061361a60208361272c565b9150613625826135e4565b602082019050919050565b600060208201905081810360008301526136498161360d565b9050919050565b7f4552433732313a20617070726f766520746f2063616c6c657200000000000000600082015250565b600061368660198361272c565b915061369182613650565b602082019050919050565b600060208201905081810360008301526136b581613679565b9050919050565b7f4552433732313a207472616e7366657220746f206e6f6e20455243373231526560008201527f63656976657220696d706c656d656e7465720000000000000000000000000000602082015250565b600061371860328361272c565b9150613723826136bc565b604082019050919050565b600060208201905081810360008301526137478161370b565b9050919050565b7f4e487b7100000000000000000000000000000000000000000000000000000000600052601260045260246000fd5b7f5061757361626c653a206e6f7420706175736564000000000000000000000000600082015250565b60006137b360148361272c565b91506137be8261377d565b602082019050919050565b600060208201905081810360008301526137e2816137a6565b9050919050565b7f5061757361626c653a2070617573656400000000000000000000000000000000600082015250565b600061381f60108361272c565b915061382a826137e9565b602082019050919050565b6000602082019050818103600083015261384e81613812565b9050919050565b600081519050919050565b600082825260208201905092915050565b600061387c82613855565b6138868185613860565b935061389681856020860161273d565b61389f81612767565b840191505092915050565b60006080820190506138bf6000830187612868565b6138cc6020830186612868565b6138d9604083018561297e565b81810360608301526138eb8184613871565b905095945050505050565b60008151905061390581612692565b92915050565b6000602082840312156139215761392061265c565b5b600061392f848285016138f6565b91505092915050565b6000613943826127d3565b915061394e836127d3565b925082820390508181111561396657613965613357565b5b92915050565b6000613977826127d3565b9150613982836127d3565b925082820190508082111561399a57613999613357565b5b92915050565b7f4552433732313a206d696e7420746f20746865207a65726f2061646472657373600082015250565b60006139d660208361272c565b91506139e1826139a0565b602082019050919050565b60006020820190508181036000830152613a05816139c9565b9050919050565b7f4552433732313a20746f6b656e20616c7265616479206d696e74656400000000600082015250565b6000613a42601c8361272c565b9150613a4d82613a0c565b602082019050919050565b60006020820190508181036000830152613a7181613a35565b905091905056fea2646970667358221220fd48201d926842aec316efd3edd28751d132bc5feba23424cf973837956581ec64736f6c63430008100033",
  "immutableReferences": {},
  "source": "// SPDX-License-Identifier: MIT\npragma solidity ^0.8.9;\n\nimport \"@openzeppelin/contracts/token/ERC721/ERC721.sol\";\nimport \"@openzeppelin/contracts/security/Pausable.sol\";\nimport \"@openzeppelin/contracts/access/Ownable.sol\";\nimport \"@openzeppelin/contracts/token/ERC721/extensions/ERC721Burnable.sol\";\nimport \"@openzeppelin/contracts/utils/Counters.sol\";\n\ncontract BondReceipt721 is ERC721, Pausable, Ownable, ERC721Burnable {\n    using Counters for Counters.Counter;\n\n\n    struct ReceiptDataStruct {\n        uint id;\n        uint256 indexBond;\n        address issuing;\n        address tokenCollateral;\n        uint256 amountCollateral;\n        address tokenRequired;\n        uint256 interestCoupon;\n        uint256[] expireCoupon;\n        uint256 sizeBond;\n    }\n    mapping(uint256 => ReceiptDataStruct) internal receiptData;\n    mapping(address => mapping(uint => uint[])) internal listIdforIndexBond;\n\n    Counters.Counter private _tokenIdCounter;\n\n    constructor() ERC721(\"MyToken\", \"MTK\") {}\n\n    function pause() public onlyOwner {\n        _pause();\n    }\n\n    function unpause() public onlyOwner {\n        _unpause();\n    }\n\n    function safeMint(\n        address to,\n        uint256 amount,\n        uint256 indexBond,\n        address issuing,\n        address tokenCollateral,\n        uint256 amountCollateral,\n        address tokenRequired,\n        uint256 interestCoupon,\n        uint256[] memory expireCoupon,\n        uint256 sizeBond\n    ) public onlyOwner returns (uint[] memory ){\n        uint[] memory tokensId = new uint[](amount);\n        for (uint256 index = 0; index < amount;index++) {\n            uint tokenId = _tokenIdCounter.current();\n            _tokenIdCounter.increment();\n            _safeMint(to, tokenId);\n            receiptData[tokenId] = (\n            ReceiptDataStruct(\n                tokenId,\n                indexBond,\n                issuing,\n                tokenCollateral,\n                amountCollateral,\n                tokenRequired,\n                interestCoupon,\n                expireCoupon,\n                sizeBond\n            )\n        );\n        listIdforIndexBond[to][indexBond].push(tokenId);\n       \n            tokensId[index]=tokenId;\n\n        \n      \n        }\n        return tokensId;\n    }\n\n    function _beforeTokenTransfer(address from, address to, uint256 tokenId, uint256 batchSize)\n        internal\n        whenNotPaused\n        override\n    {\n        super._beforeTokenTransfer(from, to, tokenId, batchSize);\n    }\n\n\n      function getInformationReceipt(uint _id) public view returns(ReceiptDataStruct memory){\n        return receiptData[_id];\n    }\n    \n\n\n    function _findIdforIndexBond (address _account, uint _id) internal view returns (uint _indexList){\n        for (_indexList = 0; _indexList < listIdforIndexBond[_account][_id].length; _indexList++) {\n\n        }\n    }\n\n    function balanceOfBonds(address  _user, uint  _bondIndex) public view returns(uint balanceBonds){\n        return listIdforIndexBond[_user][_bondIndex].length;\n    }\n    function ListIdReceiptForBonds(address  _user, uint  _bondIndex) public view returns(uint[] memory){\n        return listIdforIndexBond[_user][_bondIndex];\n    }\n\n\n}\n",
  "sourcePath": "/run/media/luk/storage/Studio Dev/Dapp portfolio/bond contract/contracts/bondERC721.sol",
  "compiler": {
    "name": "solc",
    "version": "0.8.16+commit.07a7930e.Emscripten.clang"
  },
  "schemaVersion": "3.4.11",
  "updatedAt": "2023-01-17T20:54:31.447Z",
  "devdoc": {
    "kind": "dev",
    "methods": {
      "approve(address,uint256)": {
        "details": "See {IERC721-approve}."
      },
      "balanceOf(address)": {
        "details": "See {IERC721-balanceOf}."
      },
      "burn(uint256)": {
        "details": "Burns `tokenId`. See {ERC721-_burn}. Requirements: - The caller must own `tokenId` or be an approved operator."
      },
      "getApproved(uint256)": {
        "details": "See {IERC721-getApproved}."
      },
      "isApprovedForAll(address,address)": {
        "details": "See {IERC721-isApprovedForAll}."
      },
      "name()": {
        "details": "See {IERC721Metadata-name}."
      },
      "owner()": {
        "details": "Returns the address of the current owner."
      },
      "ownerOf(uint256)": {
        "details": "See {IERC721-ownerOf}."
      },
      "paused()": {
        "details": "Returns true if the contract is paused, and false otherwise."
      },
      "renounceOwnership()": {
        "details": "Leaves the contract without owner. It will not be possible to call `onlyOwner` functions anymore. Can only be called by the current owner. NOTE: Renouncing ownership will leave the contract without an owner, thereby removing any functionality that is only available to the owner."
      },
      "safeTransferFrom(address,address,uint256)": {
        "details": "See {IERC721-safeTransferFrom}."
      },
      "safeTransferFrom(address,address,uint256,bytes)": {
        "details": "See {IERC721-safeTransferFrom}."
      },
      "setApprovalForAll(address,bool)": {
        "details": "See {IERC721-setApprovalForAll}."
      },
      "supportsInterface(bytes4)": {
        "details": "See {IERC165-supportsInterface}."
      },
      "symbol()": {
        "details": "See {IERC721Metadata-symbol}."
      },
      "tokenURI(uint256)": {
        "details": "See {IERC721Metadata-tokenURI}."
      },
      "transferFrom(address,address,uint256)": {
        "details": "See {IERC721-transferFrom}."
      },
      "transferOwnership(address)": {
        "details": "Transfers ownership of the contract to a new account (`newOwner`). Can only be called by the current owner."
      }
    },
    "version": 1
  },
  "userdoc": {
    "kind": "user",
    "methods": {},
    "version": 1
  }
}