{
  "contractName": "CoreContract",
  "abi": [
    {
      "inputs": [
        {
          "internalType": "address",
          "name": "_bondReceiptContract",
          "type": "address"
        }
      ],
      "stateMutability": "nonpayable",
      "type": "constructor"
    },
    {
      "inputs": [
        {
          "internalType": "address",
          "name": "_issuing",
          "type": "address"
        }
      ],
      "name": "getBondList",
      "outputs": [
        {
          "components": [
            {
              "internalType": "uint256",
              "name": "indexBond",
              "type": "uint256"
            },
            {
              "internalType": "address",
              "name": "issuing",
              "type": "address"
            },
            {
              "internalType": "address",
              "name": "tokenCollateral",
              "type": "address"
            },
            {
              "internalType": "uint256",
              "name": "amountCollateral",
              "type": "uint256"
            },
            {
              "internalType": "address",
              "name": "tokenRequired",
              "type": "address"
            },
            {
              "internalType": "uint256",
              "name": "interestCoupon",
              "type": "uint256"
            },
            {
              "internalType": "uint256[]",
              "name": "expireCoupon",
              "type": "uint256[]"
            },
            {
              "internalType": "uint256",
              "name": "sizeBond",
              "type": "uint256"
            },
            {
              "internalType": "uint256",
              "name": "amountAvvalible",
              "type": "uint256"
            },
            {
              "internalType": "uint256",
              "name": "amountSellBond",
              "type": "uint256"
            }
          ],
          "internalType": "struct StorageStruct.BondStruct[]",
          "name": "",
          "type": "tuple[]"
        }
      ],
      "stateMutability": "view",
      "type": "function"
    },
    {
      "inputs": [
        {
          "internalType": "uint256",
          "name": "indexBond",
          "type": "uint256"
        }
      ],
      "name": "getListBondReceipts",
      "outputs": [
        {
          "internalType": "uint256[]",
          "name": "",
          "type": "uint256[]"
        }
      ],
      "stateMutability": "view",
      "type": "function"
    },
    {
      "inputs": [
        {
          "internalType": "address",
          "name": "_tokenCollateral",
          "type": "address"
        },
        {
          "internalType": "uint256",
          "name": "_amountCollateral",
          "type": "uint256"
        },
        {
          "internalType": "address",
          "name": "_tokenRequired",
          "type": "address"
        },
        {
          "internalType": "uint256",
          "name": "_interestCoupon",
          "type": "uint256"
        },
        {
          "internalType": "uint256[]",
          "name": "_expireCoupon",
          "type": "uint256[]"
        },
        {
          "internalType": "uint256",
          "name": "_sizeBond",
          "type": "uint256"
        },
        {
          "internalType": "uint256",
          "name": "_amountAvvalible",
          "type": "uint256"
        }
      ],
      "name": "createNewBond",
      "outputs": [],
      "stateMutability": "nonpayable",
      "type": "function"
    },
    {
      "inputs": [
        {
          "internalType": "uint256",
          "name": "_amount",
          "type": "uint256"
        },
        {
          "internalType": "address",
          "name": "_issuing",
          "type": "address"
        },
        {
          "internalType": "uint256",
          "name": "_bondIndex",
          "type": "uint256"
        }
      ],
      "name": "buyBond",
      "outputs": [],
      "stateMutability": "nonpayable",
      "type": "function"
    }
  ],
  "bytecode": "0x60806040523480156200001157600080fd5b5060405162001def38038062001def8339818101604052810190620000379190620000eb565b8080600260006101000a81548173ffffffffffffffffffffffffffffffffffffffff021916908373ffffffffffffffffffffffffffffffffffffffff16021790555050506200011d565b600080fd5b600073ffffffffffffffffffffffffffffffffffffffff82169050919050565b6000620000b38262000086565b9050919050565b620000c581620000a6565b8114620000d157600080fd5b50565b600081519050620000e581620000ba565b92915050565b60006020828403121562000104576200010362000081565b5b60006200011484828501620000d4565b91505092915050565b611cc2806200012d6000396000f3fe608060405234801561001057600080fd5b506004361061004c5760003560e01c80634389738e146100515780635f86501b14610081578063a2c3858a1461009d578063eedfa101146100b9575b600080fd5b61006b60048036038101906100669190611217565b6100e9565b6040516100789190611302565b60405180910390f35b61009b600480360381019061009691906114db565b610154565b005b6100b760048036038101906100b29190611599565b61016d565b005b6100d360048036038101906100ce91906115ec565b61017e565b6040516100e09190611833565b60405180910390f35b60606006600083815260200190815260200160002080548060200260200160405190810160405280929190818152602001828054801561014857602002820191906000526020600020905b815481526020019060010190808311610134575b50505050509050919050565b61016433888888888888886103b3565b50505050505050565b61017933848484610682565b505050565b6060600160008373ffffffffffffffffffffffffffffffffffffffff1673ffffffffffffffffffffffffffffffffffffffff168152602001908152602001600020805480602002602001604051908101604052809291908181526020016000905b828210156103a857838290600052602060002090600a020160405180610140016040529081600082015481526020016001820160009054906101000a900473ffffffffffffffffffffffffffffffffffffffff1673ffffffffffffffffffffffffffffffffffffffff1673ffffffffffffffffffffffffffffffffffffffff1681526020016002820160009054906101000a900473ffffffffffffffffffffffffffffffffffffffff1673ffffffffffffffffffffffffffffffffffffffff1673ffffffffffffffffffffffffffffffffffffffff168152602001600382015481526020016004820160009054906101000a900473ffffffffffffffffffffffffffffffffffffffff1673ffffffffffffffffffffffffffffffffffffffff1673ffffffffffffffffffffffffffffffffffffffff168152602001600582015481526020016006820180548060200260200160405190810160405280929190818152602001828054801561037257602002820191906000526020600020905b81548152602001906001019080831161035e575b505050505081526020016007820154815260200160088201548152602001600982015481525050815260200190600101906101df565b505050509050919050565b8673ffffffffffffffffffffffffffffffffffffffff166323b872dd8930896040518463ffffffff1660e01b81526004016103f093929190611873565b6020604051808303816000875af115801561040f573d6000803e3d6000fd5b505050506040513d601f19601f8201168201806040525081019061043391906118e2565b5060006104406000610eea565b905061044c6000610ef8565b600160008a73ffffffffffffffffffffffffffffffffffffffff1673ffffffffffffffffffffffffffffffffffffffff1681526020019081526020016000206040518061014001604052808381526020018b73ffffffffffffffffffffffffffffffffffffffff1681526020018a73ffffffffffffffffffffffffffffffffffffffff1681526020018981526020018873ffffffffffffffffffffffffffffffffffffffff16815260200187815260200161050687610f0e565b8152602001858152602001848152602001600081525090806001815401808255809150506001900390600052602060002090600a02016000909190919091506000820151816000015560208201518160010160006101000a81548173ffffffffffffffffffffffffffffffffffffffff021916908373ffffffffffffffffffffffffffffffffffffffff16021790555060408201518160020160006101000a81548173ffffffffffffffffffffffffffffffffffffffff021916908373ffffffffffffffffffffffffffffffffffffffff1602179055506060820151816003015560808201518160040160006101000a81548173ffffffffffffffffffffffffffffffffffffffff021916908373ffffffffffffffffffffffffffffffffffffffff16021790555060a0820151816005015560c0820151816006019080519060200190610654929190611163565b5060e08201518160070155610100820151816008015561012082015181600901555050505050505050505050565b60008061068f8484610f8b565b91509150806106d3576040517f08c379a00000000000000000000000000000000000000000000000000000000081526004016106ca9061196c565b60405180910390fd5b600160008573ffffffffffffffffffffffffffffffffffffffff1673ffffffffffffffffffffffffffffffffffffffff16815260200190815260200160002082815481106107245761072361198c565b5b90600052602060002090600a020160040160009054906101000a900473ffffffffffffffffffffffffffffffffffffffff1673ffffffffffffffffffffffffffffffffffffffff166323b872dd8730600160008973ffffffffffffffffffffffffffffffffffffffff1673ffffffffffffffffffffffffffffffffffffffff16815260200190815260200160002086815481106107c4576107c361198c565b5b90600052602060002090600a020160070154896107e191906119ea565b6040518463ffffffff1660e01b81526004016107ff93929190611873565b6020604051808303816000875af115801561081e573d6000803e3d6000fd5b505050506040513d601f19601f8201168201806040525081019061084291906118e2565b50610c138686600160008873ffffffffffffffffffffffffffffffffffffffff1673ffffffffffffffffffffffffffffffffffffffff16815260200190815260200160002085815481106108995761089861198c565b5b90600052602060002090600a020160000154600160008973ffffffffffffffffffffffffffffffffffffffff1673ffffffffffffffffffffffffffffffffffffffff16815260200190815260200160002086815481106108fc576108fb61198c565b5b90600052602060002090600a020160010160009054906101000a900473ffffffffffffffffffffffffffffffffffffffff16600160008a73ffffffffffffffffffffffffffffffffffffffff1673ffffffffffffffffffffffffffffffffffffffff168152602001908152602001600020878154811061097f5761097e61198c565b5b90600052602060002090600a020160020160009054906101000a900473ffffffffffffffffffffffffffffffffffffffff16600160008b73ffffffffffffffffffffffffffffffffffffffff1673ffffffffffffffffffffffffffffffffffffffff1681526020019081526020016000208881548110610a0257610a0161198c565b5b90600052602060002090600a020160030154600160008c73ffffffffffffffffffffffffffffffffffffffff1673ffffffffffffffffffffffffffffffffffffffff1681526020019081526020016000208981548110610a6557610a6461198c565b5b90600052602060002090600a020160040160009054906101000a900473ffffffffffffffffffffffffffffffffffffffff16600160008d73ffffffffffffffffffffffffffffffffffffffff1673ffffffffffffffffffffffffffffffffffffffff1681526020019081526020016000208a81548110610ae857610ae761198c565b5b90600052602060002090600a020160050154600160008e73ffffffffffffffffffffffffffffffffffffffff1673ffffffffffffffffffffffffffffffffffffffff1681526020019081526020016000208b81548110610b4b57610b4a61198c565b5b90600052602060002090600a0201600601805480602002602001604051908101604052809291908181526020018280548015610ba657602002820191906000526020600020905b815481526020019060010190808311610b92575b5050505050600160008f73ffffffffffffffffffffffffffffffffffffffff1673ffffffffffffffffffffffffffffffffffffffff1681526020019081526020016000208c81548110610bfc57610bfb61198c565b5b90600052602060002090600a020160070154611075565b60018060008673ffffffffffffffffffffffffffffffffffffffff1673ffffffffffffffffffffffffffffffffffffffff1681526020019081526020016000208381548110610c6557610c6461198c565b5b90600052602060002090600a02016008016000828254610c859190611a44565b92505081905550600160008573ffffffffffffffffffffffffffffffffffffffff1673ffffffffffffffffffffffffffffffffffffffff1681526020019081526020016000208281548110610cdd57610cdc61198c565b5b90600052602060002090600a02016007015485610cfa91906119ea565b600160008673ffffffffffffffffffffffffffffffffffffffff1673ffffffffffffffffffffffffffffffffffffffff1681526020019081526020016000208381548110610d4b57610d4a61198c565b5b90600052602060002090600a02016009016000828254610d6b9190611a78565b92505081905550600160008573ffffffffffffffffffffffffffffffffffffffff1673ffffffffffffffffffffffffffffffffffffffff1681526020019081526020016000208281548110610dc357610dc261198c565b5b90600052602060002090600a02016007015485610de091906119ea565b600360008673ffffffffffffffffffffffffffffffffffffffff1673ffffffffffffffffffffffffffffffffffffffff1681526020019081526020016000206000600160008873ffffffffffffffffffffffffffffffffffffffff1673ffffffffffffffffffffffffffffffffffffffff1681526020019081526020016000208581548110610e7257610e7161198c565b5b90600052602060002090600a020160040160009054906101000a900473ffffffffffffffffffffffffffffffffffffffff1673ffffffffffffffffffffffffffffffffffffffff1673ffffffffffffffffffffffffffffffffffffffff16815260200190815260200160002081905550505050505050565b600081600001549050919050565b6001816000016000828254019250508190555050565b606081905060005b8251811015610f85574262015180848381518110610f3757610f3661198c565b5b6020026020010151610f4991906119ea565b610f539190611a78565b828281518110610f6657610f6561198c565b5b6020026020010181815250508080610f7d90611aac565b915050610f16565b50919050565b600080600091505b600160008573ffffffffffffffffffffffffffffffffffffffff1673ffffffffffffffffffffffffffffffffffffffff168152602001908152602001600020805490508210156110625782600160008673ffffffffffffffffffffffffffffffffffffffff1673ffffffffffffffffffffffffffffffffffffffff168152602001908152602001600020838154811061102f5761102e61198c565b5b90600052602060002090600a0201600001540361104f576001905061106e565b818061105a90611aac565b925050610f93565b60009150816000915091505b9250929050565b6000600260009054906101000a900473ffffffffffffffffffffffffffffffffffffffff1673ffffffffffffffffffffffffffffffffffffffff1663ac46a9b88c8c8c8c8c8c8c8c8c8c6040518b63ffffffff1660e01b81526004016110e49a99989796959493929190611af4565b6000604051808303816000875af1158015611103573d6000803e3d6000fd5b505050506040513d6000823e3d601f19601f8201168201806040525081019061112c9190611c43565b905080600660008b81526020019081526020016000209080519060200190611155929190611163565b505050505050505050505050565b82805482825590600052602060002090810192821561119f579160200282015b8281111561119e578251825591602001919060010190611183565b5b5090506111ac91906111b0565b5090565b5b808211156111c95760008160009055506001016111b1565b5090565b6000604051905090565b600080fd5b600080fd5b6000819050919050565b6111f4816111e1565b81146111ff57600080fd5b50565b600081359050611211816111eb565b92915050565b60006020828403121561122d5761122c6111d7565b5b600061123b84828501611202565b91505092915050565b600081519050919050565b600082825260208201905092915050565b6000819050602082019050919050565b611279816111e1565b82525050565b600061128b8383611270565b60208301905092915050565b6000602082019050919050565b60006112af82611244565b6112b9818561124f565b93506112c483611260565b8060005b838110156112f55781516112dc888261127f565b97506112e783611297565b9250506001810190506112c8565b5085935050505092915050565b6000602082019050818103600083015261131c81846112a4565b905092915050565b600073ffffffffffffffffffffffffffffffffffffffff82169050919050565b600061134f82611324565b9050919050565b61135f81611344565b811461136a57600080fd5b50565b60008135905061137c81611356565b92915050565b600080fd5b6000601f19601f8301169050919050565b7f4e487b7100000000000000000000000000000000000000000000000000000000600052604160045260246000fd5b6113d082611387565b810181811067ffffffffffffffff821117156113ef576113ee611398565b5b80604052505050565b60006114026111cd565b905061140e82826113c7565b919050565b600067ffffffffffffffff82111561142e5761142d611398565b5b602082029050602081019050919050565b600080fd5b600061145761145284611413565b6113f8565b9050808382526020820190506020840283018581111561147a5761147961143f565b5b835b818110156114a3578061148f8882611202565b84526020840193505060208101905061147c565b5050509392505050565b600082601f8301126114c2576114c1611382565b5b81356114d2848260208601611444565b91505092915050565b600080600080600080600060e0888a0312156114fa576114f96111d7565b5b60006115088a828b0161136d565b97505060206115198a828b01611202565b965050604061152a8a828b0161136d565b955050606061153b8a828b01611202565b945050608088013567ffffffffffffffff81111561155c5761155b6111dc565b5b6115688a828b016114ad565b93505060a06115798a828b01611202565b92505060c061158a8a828b01611202565b91505092959891949750929550565b6000806000606084860312156115b2576115b16111d7565b5b60006115c086828701611202565b93505060206115d18682870161136d565b92505060406115e286828701611202565b9150509250925092565b600060208284031215611602576116016111d7565b5b60006116108482850161136d565b91505092915050565b600081519050919050565b600082825260208201905092915050565b6000819050602082019050919050565b61164e81611344565b82525050565b600082825260208201905092915050565b600061167082611244565b61167a8185611654565b935061168583611260565b8060005b838110156116b657815161169d888261127f565b97506116a883611297565b925050600181019050611689565b5085935050505092915050565b6000610140830160008301516116dc6000860182611270565b5060208301516116ef6020860182611645565b5060408301516117026040860182611645565b5060608301516117156060860182611270565b5060808301516117286080860182611645565b5060a083015161173b60a0860182611270565b5060c083015184820360c08601526117538282611665565b91505060e083015161176860e0860182611270565b5061010083015161177d610100860182611270565b50610120830151611792610120860182611270565b508091505092915050565b60006117a983836116c3565b905092915050565b6000602082019050919050565b60006117c982611619565b6117d38185611624565b9350836020820285016117e585611635565b8060005b858110156118215784840389528151611802858261179d565b945061180d836117b1565b925060208a019950506001810190506117e9565b50829750879550505050505092915050565b6000602082019050818103600083015261184d81846117be565b905092915050565b61185e81611344565b82525050565b61186d816111e1565b82525050565b60006060820190506118886000830186611855565b6118956020830185611855565b6118a26040830184611864565b949350505050565b60008115159050919050565b6118bf816118aa565b81146118ca57600080fd5b50565b6000815190506118dc816118b6565b92915050565b6000602082840312156118f8576118f76111d7565b5b6000611906848285016118cd565b91505092915050565b600082825260208201905092915050565b7f426f6e6420646f6e27742066696e640000000000000000000000000000000000600082015250565b6000611956600f8361190f565b915061196182611920565b602082019050919050565b6000602082019050818103600083015261198581611949565b9050919050565b7f4e487b7100000000000000000000000000000000000000000000000000000000600052603260045260246000fd5b7f4e487b7100000000000000000000000000000000000000000000000000000000600052601160045260246000fd5b60006119f5826111e1565b9150611a00836111e1565b9250817fffffffffffffffffffffffffffffffffffffffffffffffffffffffffffffffff0483118215151615611a3957611a386119bb565b5b828202905092915050565b6000611a4f826111e1565b9150611a5a836111e1565b9250828203905081811115611a7257611a716119bb565b5b92915050565b6000611a83826111e1565b9150611a8e836111e1565b9250828201905080821115611aa657611aa56119bb565b5b92915050565b6000611ab7826111e1565b91507fffffffffffffffffffffffffffffffffffffffffffffffffffffffffffffffff8203611ae957611ae86119bb565b5b600182019050919050565b600061014082019050611b0a600083018d611855565b611b17602083018c611864565b611b24604083018b611864565b611b31606083018a611855565b611b3e6080830189611855565b611b4b60a0830188611864565b611b5860c0830187611855565b611b6560e0830186611864565b818103610100830152611b7881856112a4565b9050611b88610120830184611864565b9b9a5050505050505050505050565b600081519050611ba6816111eb565b92915050565b6000611bbf611bba84611413565b6113f8565b90508083825260208201905060208402830185811115611be257611be161143f565b5b835b81811015611c0b5780611bf78882611b97565b845260208401935050602081019050611be4565b5050509392505050565b600082601f830112611c2a57611c29611382565b5b8151611c3a848260208601611bac565b91505092915050565b600060208284031215611c5957611c586111d7565b5b600082015167ffffffffffffffff811115611c7757611c766111dc565b5b611c8384828501611c15565b9150509291505056fea264697066735822122057fc04ecd17073047602f78d356cc922d05755dab6eb1f6442ba28172291040464736f6c63430008100033",
  "immutableReferences": {},
  "source": "// SPDX-License-Identifier: MIT\n\nimport \"./componentContract/DepositWithdrawFunction.sol\";\nimport  \"./componentContract/bondFunction.sol\";\n\npragma solidity 0.8.16;\n\ncontract CoreContract is BondFunction ,DepositWithdrawFunction{\n    \n\n       constructor(address _bondReceiptContract) BondFunction(_bondReceiptContract){}\n\n    function createNewBond(\n  \n        address _tokenCollateral,\n        uint256 _amountCollateral,\n        address _tokenRequired,\n        uint256 _interestCoupon,\n        uint256[] memory _expireCoupon,\n        uint256 _sizeBond,\n        uint256 _amountAvvalible\n    ) external {\n        _createNewBond(msg.sender, _tokenCollateral, _amountCollateral, _tokenRequired, _interestCoupon, _expireCoupon, _sizeBond, _amountAvvalible);\n    }\n\n\n    function buyBond(\n        uint256 _amount,\n        address _issuing,\n        uint256 _bondIndex\n    ) external {\n        _buyBond(msg.sender, _amount, _issuing, _bondIndex);\n    }\n\n}\n\n\n\n\n\n\n\n    /*\n    event NewDeposit (address indexed user, address indexed token,uint amount);\n    event NewWithdraw (address indexed user, address indexed token,uint amount);\n    function depositToken(address _token,uint _amount) external {\n        _depositToken(msg.sender, _token, _amount);\n        emit NewDeposit(msg.sender, _token, _amount);\n    }\n    function withdrawToken(address  _token,uint _amount) external {\n        _withdrawToken(msg.sender, _token, _amount);\n        emit NewWithdraw(msg.sender, _token, _amount);\n    }\n    */",
  "sourcePath": "/run/media/luk/storage/Studio Dev/Dapp portfolio/bond contract/contracts/coreContract.sol",
  "compiler": {
    "name": "solc",
    "version": "0.8.16+commit.07a7930e.Emscripten.clang"
  },
  "schemaVersion": "3.4.11",
  "updatedAt": "2023-01-17T20:54:31.470Z",
  "devdoc": {
    "kind": "dev",
    "methods": {},
    "version": 1
  },
  "userdoc": {
    "kind": "user",
    "methods": {},
    "version": 1
  }
}