{
  "contractName": "DepositFunction",
  "abi": [
    {
      "inputs": [
        {
          "internalType": "address",
          "name": "_user",
          "type": "address"
        },
        {
          "internalType": "address",
          "name": "_token",
          "type": "address"
        }
      ],
      "name": "getDepositToken",
      "outputs": [
        {
          "components": [
            {
              "internalType": "address",
              "name": "tokenAddress",
              "type": "address"
            },
            {
              "internalType": "uint256",
              "name": "balance",
              "type": "uint256"
            }
          ],
          "internalType": "struct StorageStruct.DepositUser",
          "name": "_deposit",
          "type": "tuple"
        }
      ],
      "stateMutability": "view",
      "type": "function"
    },
    {
      "inputs": [
        {
          "internalType": "address",
          "name": "_user",
          "type": "address"
        }
      ],
      "name": "getListDepositToken",
      "outputs": [
        {
          "components": [
            {
              "internalType": "address",
              "name": "tokenAddress",
              "type": "address"
            },
            {
              "internalType": "uint256",
              "name": "balance",
              "type": "uint256"
            }
          ],
          "internalType": "struct StorageStruct.DepositUser[]",
          "name": "",
          "type": "tuple[]"
        }
      ],
      "stateMutability": "view",
      "type": "function"
    }
  ],
  "bytecode": "0x608060405234801561001057600080fd5b506107c3806100206000396000f3fe608060405234801561001057600080fd5b50600436106100365760003560e01c80637381df8e1461003b578063e75cd49b1461006b575b600080fd5b6100556004803603810190610050919061048b565b61009b565b60405161006291906105be565b60405180910390f35b610085600480360381019061008091906105e0565b610198565b604051610092919061064f565b60405180910390f35b60606000808373ffffffffffffffffffffffffffffffffffffffff1673ffffffffffffffffffffffffffffffffffffffff168152602001908152602001600020805480602002602001604051908101604052809291908181526020016000905b8282101561018d57838290600052602060002090600202016040518060400160405290816000820160009054906101000a900473ffffffffffffffffffffffffffffffffffffffff1673ffffffffffffffffffffffffffffffffffffffff1673ffffffffffffffffffffffffffffffffffffffff168152602001600182015481525050815260200190600101906100fb565b505050509050919050565b6101a06103f8565b6000806101ad85856102c4565b91509150806101f1576040517f08c379a00000000000000000000000000000000000000000000000000000000081526004016101e8906106c7565b60405180910390fd5b6000808673ffffffffffffffffffffffffffffffffffffffff1673ffffffffffffffffffffffffffffffffffffffff1681526020019081526020016000208281548110610241576102406106e7565b5b90600052602060002090600202016040518060400160405290816000820160009054906101000a900473ffffffffffffffffffffffffffffffffffffffff1673ffffffffffffffffffffffffffffffffffffffff1673ffffffffffffffffffffffffffffffffffffffff1681526020016001820154815250509250505092915050565b600080600091505b6000808573ffffffffffffffffffffffffffffffffffffffff1673ffffffffffffffffffffffffffffffffffffffff168152602001908152602001600020805490508210156103e5578273ffffffffffffffffffffffffffffffffffffffff166000808673ffffffffffffffffffffffffffffffffffffffff1673ffffffffffffffffffffffffffffffffffffffff168152602001908152602001600020838154811061037c5761037b6106e7565b5b906000526020600020906002020160000160009054906101000a900473ffffffffffffffffffffffffffffffffffffffff1673ffffffffffffffffffffffffffffffffffffffff16036103d257600190506103f1565b81806103dd90610745565b9250506102cc565b60009150816000915091505b9250929050565b6040518060400160405280600073ffffffffffffffffffffffffffffffffffffffff168152602001600081525090565b600080fd5b600073ffffffffffffffffffffffffffffffffffffffff82169050919050565b60006104588261042d565b9050919050565b6104688161044d565b811461047357600080fd5b50565b6000813590506104858161045f565b92915050565b6000602082840312156104a1576104a0610428565b5b60006104af84828501610476565b91505092915050565b600081519050919050565b600082825260208201905092915050565b6000819050602082019050919050565b6104ed8161044d565b82525050565b6000819050919050565b610506816104f3565b82525050565b60408201600082015161052260008501826104e4565b50602082015161053560208501826104fd565b50505050565b6000610547838361050c565b60408301905092915050565b6000602082019050919050565b600061056b826104b8565b61057581856104c3565b9350610580836104d4565b8060005b838110156105b1578151610598888261053b565b97506105a383610553565b925050600181019050610584565b5085935050505092915050565b600060208201905081810360008301526105d88184610560565b905092915050565b600080604083850312156105f7576105f6610428565b5b600061060585828601610476565b925050602061061685828601610476565b9150509250929050565b60408201600082015161063660008501826104e4565b50602082015161064960208501826104fd565b50505050565b60006040820190506106646000830184610620565b92915050565b600082825260208201905092915050565b7f6465706f73697420646f6e27742066696e640000000000000000000000000000600082015250565b60006106b160128361066a565b91506106bc8261067b565b602082019050919050565b600060208201905081810360008301526106e0816106a4565b9050919050565b7f4e487b7100000000000000000000000000000000000000000000000000000000600052603260045260246000fd5b7f4e487b7100000000000000000000000000000000000000000000000000000000600052601160045260246000fd5b6000610750826104f3565b91507fffffffffffffffffffffffffffffffffffffffffffffffffffffffffffffffff820361078257610781610716565b5b60018201905091905056fea26469706673582212207853d256e36be782aa9048a44d4900c01be7e7a88e6d786ce40698bee24ddb3d64736f6c63430008100033",
  "immutableReferences": {},
  "source": "// SPDX-License-Identifier: MIT\npragma solidity 0.8.16;\n\nimport \"../storage.sol\";\nimport \"../../node_modules/@openzeppelin/contracts/token/ERC20/IERC20.sol\";\n\n//import \"../library/utils.sol\";\n\ncontract DepositFunction is StorageStruct {\n    function _depositToken(\n        address _user,\n        address _token,\n        uint256 _amount\n    ) internal {\n        IERC20(_token).transferFrom(_user, address(this), _amount);\n        (uint256 _index, bool response) = serchIndex(_user, _token);\n\n        if (!response) {\n            depositUserToken[_user].push(\n                DepositUser({tokenAddress: _token, balance: _amount})\n            );\n        } else {\n            depositUserToken[_user][_index] = DepositUser({\n                tokenAddress: _token,\n                balance: _amount\n            });\n        }\n    }\n\n    function _withdrawToken(\n        address _user,\n        address _token,\n        uint256 _amount\n    ) internal {\n        (uint256 index, bool response) = serchIndex(_user, _token);\n        require(response, \"deposit don't find\");\n        require(\n            _amount <= depositUserToken[_user][index].balance,\n            \"balance insufficient for this withdraw\"\n        );\n        depositUserToken[_user][index].balance -= _amount;\n        IERC20(_token).transfer(_user, _amount);\n    }\n\n    function getDepositToken(address _user, address _token)\n        public\n        view\n        returns (DepositUser memory _deposit)\n    {\n        (uint256 index, bool response) = serchIndex(_user, _token);\n        require(response, \"deposit don't find\");\n        return _deposit = depositUserToken[_user][index];\n    }\n\n    function getListDepositToken(address _user) public view returns(DepositUser[] memory){\n        return depositUserToken[_user];\n    }\n\n    function serchIndex(address _user, address _token)\n        internal\n        view\n        returns (uint256 index, bool response)\n    {\n        for (index = 0; index < depositUserToken[_user].length; index++) {\n            if (depositUserToken[_user][index].tokenAddress == _token) {\n                response = true;\n                return (index, response);\n            }\n        }\n        return (index = 0, response = false);\n    }\n}\n",
  "sourcePath": "/run/media/luk/storage/Studio Dev/Dapp portfolio/bond contract/contracts/componentContract/depositFunction.sol",
  "compiler": {
    "name": "solc",
    "version": "0.8.16+commit.07a7930e.Emscripten.clang"
  },
  "schemaVersion": "3.4.11",
  "updatedAt": "2023-01-15T16:13:06.690Z",
  "devdoc": {
    "kind": "dev",
    "methods": {},
    "version": 1
  },
  "userdoc": {
    "kind": "user",
    "methods": {},
    "version": 1
  }
}